:100000000C942A000C9447000C9447000C94470071
:100010000C9447000C9447000C9447000C94470044
:100020000C9447000C9447000C9447000C94470034
:100030000C9447000C9447000C9447000C94470024
:100040000C9447000C9447000C9447000C94470014
:100050000C94470011241FBECFE5D8E0DEBFCDBF12
:1000600010E0A0E6B0E0E4E8FFE102C005900D92E8
:10007000A63DB107D9F723E0A6EDB0E001C01D927F
:10008000A43BB207E1F70E94DE030C94C00F0C946E
:1000900000009BB3282F207F9F70922B9BBBDA9888
:1000A000DB9AEFE8F1E03197F1F700C00000DB9850
:1000B000EFEAF4E03197F1F700C000002BB3F0E174
:1000C0008F9FC0011124922F9F70892B8BBBDB9ACD
:1000D0008FEA94E00197F1F700C00000DB980895E3
:1000E0009BB3282F207F9F70922B9BBBDA9ADB9AC1
:1000F000EFE1F3E03197F1F700C00000DB98EFE1AA
:10010000F3E03197F1F700C000002BB3F0E18F9FCF
:10011000C0011124922F9F70892B8BBBDB9A8FE13A
:1001200093E00197F1F700C00000DB9808958CEF91
:100130008ABBDB982FEF83EC99E021508040904000
:10014000E1F700C0000083E30E9449002FEF89EF30
:1001500090E0215080409040E1F700C0000082E331
:100160000E9449002FEF89EF90E02150804090409D
:10017000E1F700C0000088E20E9449002FEF89EFFC
:1001800090E0215080409040E1F700C000008CE0FA
:100190000E9449002FEF89EF90E02150804090406D
:1001A000E1F700C0000081E00E9449002FEF89EFD5
:1001B00090E0215080409040E1F700C00000089599
:1001C00081E00E9449008FE39FE10197F1F700C0B1
:1001D000000008951F93CF93DF93EC01888188235B
:1001E00071F010E00E9470001F5F85E38A95F1F7BF
:1001F0000000FE01E10FF11D80818111F3CFDF913D
:10020000CF911F910895813029F4862F81580E9443
:1002100049000895823021F4862F81540E944900BC
:100220000895CF93DF93C82FDDEC8D9FD12D11243E
:10023000D695D695D6958D2F805D0E947000DD0FE6
:100240008D2F880F880FD80F8C2F8D1B805D0E94FB
:100250007000DF91CF91089514BA8FEF85BB81BBF9
:1002600012BA089580E090E046E430E012C0DF0169
:1002700011978C932083DF0113971C92DF01129753
:100280001C922F5F3A96273091F7019683309105A3
:1002900049F0489FF001499FF00D1124EB51FD4FAB
:1002A000232FE5CF089520916000222389F030E0CC
:1002B000EBEEF1E080E090E051E0DF0111975C931C
:1002C000482F4F5F408301963A9682179307A8F311
:1002D000089583E087BB81E088BB2FEF87E893E137
:1002E000215080409040E1F700C0000018BA089506
:1002F00092B312BA823081F028F4882349F0813019
:10030000D1F408C0843081F058F08530A1F410C0D9
:10031000979A0895969A089582B3806C82BB089547
:1003200082B3806382BB089582B3806982BB0895E3
:1003300082B3806682BB089592B312BA823011F400
:10034000909A0895833009F4919A089592B312BA5D
:10035000823011F4929A0895833009F4939A0895A3
:1003600012BA809162008E3431F48091E2008F5F86
:100370008093E20017C0853431F48091E30081500E
:100380008093E3000FC0873531F48091E3008F5FE5
:100390008093E30007C0833529F48091E200815007
:1003A0008093E2008091DF008F5F8093DF000E94E6
:1003B0006901089583B3877069F48091DD0081112C
:1003C00009C081E08093DD008091DF008F5F809322
:1003D000DF00089583B3877041F48091DD008130A0
:1003E00021F483E00E947801089583E00E9478015F
:1003F000089512BA2FEF31EE94E021503040904032
:10040000E1F700C00000811148C082E00E9478013D
:100410002FEF32E587E0215030408040E1F700C007
:10042000000084E00E9478019FEF29E638E19150B6
:1004300020403040E1F700C0000083B38770873070
:1004400019F484E00E9478018FE799EA23E0815053
:1004500090402040E1F700C0000012BA8091620095
:100460008E3459F020F4853409F05FC00AC083351A
:1004700081F0873509F059C008C087E58093620094
:1004800008958EE480936200089583E5809362006E
:10049000089585E4809362000895813009F045C095
:1004A00082E00E9478013FEF82E597E03150804082
:1004B0009040E1F700C0000085E00E9478012FEF36
:1004C00039E688E1215030408040E1F700C000006B
:1004D00083B38770873019F485E00E9478019FE725
:1004E00029EA33E0915020403040E1F700C000009D
:1004F00012BA809162008E3449F018F48534A9F460
:1005000009C0833579F0873581F408C085E480938C
:100510006200089583E58093620008958EE48093DD
:100520006200089587E580936200089512BA2FEF64
:1005300081EE94E0215080409040E1F700C000003F
:1005400082E00E9478012FEF82E597E02150804001
:100550009040E1F700C0000084E00E9478012FEF96
:1005600089ED9FE2215080409040E1F700C00000FB
:1005700012BA83B38770873019F484E00E9478013F
:100580002FEF81EE94E0215080409040E1F700C0D1
:10059000000012BA809162008E3449F018F485345C
:1005A000A9F409C0833579F0873581F408C083E563
:1005B000809362000BC087E58093620007C085E4EA
:1005C0008093620003C08EE4809362008091D60025
:1005D0008F5F8093D60008950F931F93CF93DF937F
:1005E000CDB7DEB72A970FB6F894DEBF0FBECDBFEA
:1005F00009831A832B833C834D835E836F837887C3
:1006000089879A872091D900A22FB0E0AA0FBB1F3B
:10061000CD01880F991F880F991FA80FB91FA65EDB
:10062000BD4F8AE0FE01319601900D928A95E1F767
:100630002F5F2093D9002A960FB6F894DEBF0FBE25
:10064000CDBFDF91CF911F910F9108952091D800D8
:100650002F5F2093D80030E021503109F901EE0FCF
:10066000FF1F220F331F220F331F220F331FE20FF2
:10067000F31FE65EFD4F2AE0DC0101900D922A9502
:10068000E1F70895623041F52091D700A82FB0E03E
:10069000AA0FBB1FCD01880F991F880F991FA80FA4
:1006A000B91FAC51BF4F822F90E00197FC01EE0FB4
:1006B000FF1F880F991F880F991F880F991FE80F38
:1006C000F91FEC51FF4F8AE001900D928A95E1F7F6
:1006D00021502093D7000895633039F520916000B0
:1006E000A82FB0E0AA0FBB1FCD01880F991F880F5C
:1006F000991FA80FB91FA851BE4F822F90E00197F4
:10070000FC01EE0FFF1F880F991F880F991F880F9C
:10071000991FE80FF91FE851FE4F8AE001900D92F2
:100720008A95E1F72150209360000895CF9340917E
:10073000D700442319F150E0E7EEF0E020E030E08C
:10074000C6E472E0DF0111976C91808190E0880F20
:10075000991FDC01AA0FBB1FAA0FBB1F8A0F9B1F8B
:10076000DC01C69FA00DB11D1124AE51BD4F7C937D
:100770002F5F3F4F3A962417350720F3CF91089506
:1007800080E090E046E430E00FC0DF0111978C93E9
:100790002083DF0113971C922F5F3A962730A9F729
:1007A00001968330910549F0489FF001499FF00D73
:1007B0001124EB51FD4F232FE8CF08958091DA00EB
:1007C000811159C00E9497000E942C010E943201A1
:1007D00061E081E00E94030183E690E00E94EA006C
:1007E00061E082E00E94030183E790E00E94EA005A
:1007F0002FEF83ED90E3215080409040E1F700C05F
:10080000000012BA12E0C2EED2E001E093B397709A
:10081000E9F70E9469010E94E00082E890E00E94EE
:10082000EA002FEF83ED90E3215080409040E1F704
:1008300000C000001093DE00812F0E94D5061092A8
:10084000DE001092E3001092E20008830E94E000B4
:1008500083E990E00E94EA00812F0E9478012FEF47
:1008600083EC99E0215080409040E1F700C0000007
:100870000E94BF0ACBCF0E94E00084EA90E00E9471
:10088000EA002FEF83ED90E3215080409040E1F7A4
:1008900000C0000081E08093DE000E94C0030E943F
:1008A00053010E9496030E94360E0E94300F0E9450
:1008B000360E0E94300F0E94360E0E94300F0E94AA
:1008C000360E0E94300F0E94360E0E94300F12BA70
:1008D000FFCFCF93DF9383E00E9478012FEF88EF63
:1008E00095E1215080409040E1F700C0000012BA2D
:1008F00081EA8FBD81E08EBD83B3877061F0C4EB68
:10090000D0E0DBBDCABDD9BDC8BD83E00E9478017F
:1009100083B38770B1F712BA82E00E9478012FEF9B
:1009200083EC99E0215080409040E1F700C0000046
:1009300012BA1FBC1EBC8FEF90E09BBD8ABD99BD53
:1009400088BD809162008E3431F48091E200815044
:100950008093E20017C0853431F48091E3008F5F0B
:100960008093E3000FC0873531F48091E30081501C
:100970008093E30007C0833529F48091E2008F5F04
:100980008093E20081E08093DD008091DE008111A0
:1009900006C08091D700853010F40E94BF0A809174
:1009A000D7008530A9F58091DE00811131C081E04A
:1009B0008093DA008093DE000E94E00081EB90E0FB
:1009C0000E94EA0062E082E00E9403018FEB90E067
:1009D0000E94EA0088E20E9470008091E300805D3E
:1009E0000E9470008CE20E9470008091E200805DA5
:1009F0000E94700089E20E9470002FEF87EA91E662
:100A0000215080409040E1F700C000000E94DE03CA
:100A1000DF91CF91089581E08093DC008091DE002A
:100A2000811191C03091E0002091E300832F90E08C
:100A3000880F991FFC01EE0FFF1FEE0FFF1F8E0F97
:100A40009F1FFC01EC51FF4F22834091E200832F56
:100A500090E0880F991FFC01EE0FFF1FEE0FFF1FA4
:100A60008E0F9F1FFC01EC51FF4F4383842F90E0BA
:100A7000880F991FFC01EE0FFF1FEE0FFF1F8E0F57
:100A80009F1F56E4259F90011124FC01E20FF31FE4
:100A9000EE51FD4F82E08083842F90E0880F991FF4
:100AA000FC01EE0FFF1FEE0FFF1F8E0F9F1F280F81
:100AB000391FF901EE51FD4F8FEF81830E94E00055
:100AC00083EC90E00E94EA008091E0008F5C0E943D
:100AD000700089EC90E00E94EA0088E20E947000B9
:100AE0008091E00090E0880F991FFC01EE0FFF1F3E
:100AF000EE0FFF1F8E0F9F1FFC01EC51FF4F8281F5
:100B0000805D0E9470008CE20E9470008091E00085
:100B100090E0880F991FFC01EE0FFF1FEE0FFF1FE3
:100B20008E0F9F1FFC01EC51FF4F8381805D0E945F
:100B3000700089E20E947000809161008F5F809355
:100B400061000E946904089583B3887F803FA9F4FF
:100B50008091DC00811111C08091DB0081110DC0FA
:100B60000E94B0011092E0008091D7008F5F8093C7
:100B7000D7000E940B0581E0089583B3887F803EF3
:100B8000B1F48091DC00811112C08091DB008111F1
:100B90000EC00E94B00181E08093E0008091D700F8
:100BA0008F5F8093D7000E940B0581E0089583B387
:100BB000887F803CB1F48091DC00811112C080916B
:100BC000DB0081110EC00E94B00182E08093E00042
:100BD0008091D7008F5F8093D7000E940B0581E042
:100BE000089583B3887F8038B1F48091DC0081114F
:100BF00012C08091DB0081110EC00E94B00183E021
:100C00008093E0008091D7008F5F8093D7000E948F
:100C10000B0581E0089583B3887FB1F48091DC00F7
:100C2000811112C08091DB0081110EC00E94B001C1
:100C300084E08093E0008091D7008F5F8093D7009D
:100C40000E940B0581E008951092DC0080E0089579
:100C50000E94A405813021F412BA0E94690108950E
:100C600083B3877009F064C08091DD00811160C09A
:100C700081E08093DD008091DF008F5F8093DF0053
:100C8000809162008E3431F48091E2008F5F809316
:100C9000E20017C0853431F48091E30081508093E5
:100CA000E3000FC0873531F48091E3008F5F8093BC
:100CB000E30007C0833529F48091E20081508093DE
:100CC000E2008091DE0081116FC02091E30040912D
:100CD000E200842F90E0880F991FFC01EE0FFF1FA8
:100CE000EE0FFF1F8E0F9F1F56E4259F90011124CA
:100CF000FC01E20FF31FEE51FD4F81E08083842F52
:100D000090E0880F991FFC01EE0FFF1FEE0FFF1FF1
:100D10008E0F9F1F280F391FF901EE51FD4F1182D1
:100D2000809161008F5F809361000E94BF0A0895E7
:100D300083B3877041F48091DD00813021F482E03B
:100D40000E947801089583B38770853031F482E082
:100D50000E9478011092DD00089583B3877081307E
:100D600031F480E00E9478011092DD00089583B391
:100D70008770833031F480E00E9478011092DD00AA
:100D8000089583B38770843031F481E00E94780144
:100D90001092DD00089583B38770863029F481E0D6
:100DA0000E9478011092DD0008951092DF008230D9
:100DB00039F40E9428068091DF008823D1F308953A
:100DC000833031F40E94DA018091DF008823D1F36F
:100DD0000895481304C0261302C012BA089562177A
:100DE00018F5809162008E3421F482E00E94D506CD
:100DF0000895853439F480E00E94F90182E00E9470
:100E0000D5060895873539F481E00E94F90182E022
:100E10000E94D5060895833509F072C00E9496029B
:100E200082E00E94D5060895261718F58091620089
:100E30008E3431F40E94960282E00E94D506089515
:100E4000853439F481E00E94F90182E00E94D506E0
:100E50000895873539F480E00E94F90182E00E940C
:100E6000D5060895833509F04BC082E00E94D5066F
:100E70000895841710F5809162008E3439F480E073
:100E80000E94F90182E00E94D5060895853431F46C
:100E90000E94960282E00E94D5060895873521F4CB
:100EA00082E00E94D5060895833551F581E00E94C5
:100EB000F90182E00E94D5060895481708F580914F
:100EC00062008E3439F481E00E94F90182E00E94D0
:100ED000D5060895853421F482E00E94D506089550
:100EE000873531F40E94960282E00E94D50608956B
:100EF000833531F480E00E94F90182E00E94D5063A
:100F000008952F923F924F925F926F927F928F92AD
:100F10009F92AF92BF92CF92DF92EF92FF920F9388
:100F20001F93CF93DF93CDB7DEB7C157D1090FB66B
:100F3000F894DEBF0FBECDBFE0964FAFE097E196CD
:100F40002FAFE197E2960FAFE29720E030E016E492
:100F500070E054E113C0DF0111975C931082DF0150
:100F600013974C93DF0112979C939F5F3A969730AB
:100F700091F72F5F3F4F2330310551F0422F129FE1
:100F8000F001139FF00D1124E55EFE4F972FE3CF84
:100F9000262F30E0220F331FF901EE0FFF1FEE0F57
:100FA000FF1F2E0F3F1F46E4849FC0011124F9014B
:100FB000E80FF91FEA5EFE4F1482262F30E0220F61
:100FC000331FF901EE0FFF1FEE0FFF1F2E0F3F1F04
:100FD000F901E80FF91FEA5EFE4F21E02583109228
:100FE000D9001092D800262F30E0220F331FF901CC
:100FF000EE0FFF1FEE0FFF1F2E0F3F1FF901E80F2F
:10100000F91FEA5EFE4F0081118122813381448104
:10101000558166817781808591850E94EC020F2E33
:10102000F6E47F2EF02D44244394A3C1CE01019613
:101030000E9426036B805C80E52CF12C67018FEF0A
:10104000C81AD80A97E0C916D1040CF05EC0F601A0
:10105000EE0FFF1FC601880F991F880F991F880F79
:10106000991FE80FF91F862C912C769CE00DF11D3D
:101070001124EA5EFE4F8581811147C0F601EE0F13
:10108000FF1FC601880F991F880F991F880F991F8E
:10109000E80FF91F789CC001799C900D1124E80F8E
:1010A000F91FEA5EFE4F8081833079F1789C100150
:1010B000799C300C11245F010081118122813381E0
:1010C0004481558166817781808591850E94EC02FB
:1010D000F701EE0FFF1FC701880F991F880F991F97
:1010E000880F991FE80FF91FE20DF31DEA5EFE4F0E
:1010F00024812F5FF50145828481281730F4F501A2
:1011000024836682178250861186A62CB12C650135
:10111000F1E0CF1AD1080AF45FC0F701EE0FFF1F0C
:10112000C701880F991F880F991F880F991FE80F13
:10113000F91F7C9CC0017D9C900D1124E80FF91FC4
:10114000EA5EFE4F8581811147C0F701EE0FFF1F58
:10115000C701880F991F880F991F880F991FE80FE3
:10116000F91F7C9CC0017D9C900D1124E80FF91F94
:10117000EA5EFE4F8081833079F11701220C331C27
:10118000C701880F991F880F991F880F991F280E74
:10119000391E4F01008111812281338144815581A3
:1011A00066817781808591850E94EC027A9CF001AE
:1011B0007B9CF00D1124E20DF31DEA5EFE4F2481AD
:1011C0002F5FF40145828481281730F4F4012483D1
:1011D00066821782508611866701F1E0CF1AD10826
:1011E0000AF45FC0F601EE0FFF1FC601880F991FBA
:1011F000880F991F880F991FE80FF91F7A9CC0016B
:101200007B9C900D1124E80FF91FEA5EFE4F85814B
:10121000811147C0F601EE0FFF1FC601880F991F0D
:10122000880F991F880F991FE80FF91F7A9CC0013A
:101230007B9C900D1124E80FF91FEA5EFE4F808120
:10124000833079F17A9C10017B9C300C11244F0182
:1012500000811181228133814481558166817781AA
:10126000808591850E94EC02F701EE0FFF1FC701F8
:10127000880F991F880F991F880F991FE80FF91F72
:10128000E20DF31DEA5EFE4F24812F5FF4014582DB
:101290008481281730F4F4012483668217825086F3
:1012A00011866501FFEFCF1ADF0A23E0C216D104D1
:1012B0000CF05FC0F701EE0FFF1FC701880F991FE9
:1012C000880F991F880F991FE80FF91F7C9CC00198
:1012D0007D9C900D1124E80FF91FEA5EFE4F858179
:1012E000811147C0F701EE0FFF1FC701880F991F3B
:1012F000880F991F880F991FE80FF91F7C9CC00168
:101300007D9C900D1124E80FF91FEA5EFE4F80814D
:10131000833079F11701220C331CC701880F991F04
:10132000880F991F880F991F280E391E4F010081C1
:101330001181228133814481558166817781808545
:1013400091850E94EC027A9CF0017B9CF00D1124A7
:10135000E20DF31DEA5EFE4F24812F5FF40145820A
:101360008481281730F4F401248366821782508622
:1013700011868091D800843109F058CEE096FFADF7
:10138000E097FD87E1962FADE1972E87822F90E0C1
:10139000880F991FFC01EE0FFF1FEE0FFF1F8E0F2E
:1013A0009F1FFC01E0964FADE09736E4439FE00DB0
:1013B000F11D1124EA5EFE4F1481212F21502331AB
:1013C00008F0BAC0112309F4BFC0FE0177966E0180
:1013D00088E1C80ED11C822F90E0880F991F9C01D4
:1013E000220F331F220F331F820F931FA1E2B0E0A1
:1013F000AC0FBD1F8A0F9B1FE196FFACE19706E47F
:101400002F2D30E0220F331FB901660F771F660FB3
:10141000771F260F371F049FA0011124240F351FAB
:101420002A5E3E4FD90116962C9120832F2D30E055
:10143000220F331FB901660F771F660F771F260F24
:10144000371F420F531F4A5E5E4FDA011896FC9019
:10145000D601FC9240813A96BAE0CB0ED11CE81737
:10146000F90771F66BC0012F0E94E00061E082E095
:101470000E94030188E20E947000E02EF12C6701B7
:10148000CC0CDD1CC701880F991F880F991F880F8E
:10149000991FC80ED91EE1E0F0E0EC0FFD1FCE0E43
:1014A000DF1ED6011C96BC908B2D805D0E947000C3
:1014B0008CE20E947000F601D5848D2D805D0E9423
:1014C000700089E20E9470008DEC90E00E94EA00BA
:1014D00088E20E947000F1E0EF1AF108C701880F5E
:1014E000991FEE0CFF1CEE0CFF1CEE0CFF1CE80E0F
:1014F000F91E21E030E02C0F3D1FE20EF31ED70154
:101500001C96CC908C2D805D0E9470008CE20E9415
:101510007000F701F5848F2D805D0E94700089E2D4
:101520000E9470002F2D4C2D6D2D8B2D0E94E906F1
:10153000015009F099CF08C014E106C0E296FFAD52
:10154000E297F13009F48FCF812FCF58DF4F0FB6DC
:10155000F894DEBF0FBECDBFDF91CF911F910F91E9
:10156000FF90EF90DF90CF90BF90AF909F908F90C3
:101570007F906F905F904F903F902F9008958F9243
:101580009F92AF92BF92CF92DF92EF92FF920F9312
:101590001F93CF93DF93B090E300C090E2006B2DD8
:1015A00070E0FB013197E330F105E8F58C2D90E018
:1015B000880F991FDC01AA0FBB1FAA0FBB1F8A0F40
:1015C0009B1F46E44E9F90014F9F300D1124DC017C
:1015D000A20FB31FAE51BD4F8C91811124C08C2D31
:1015E00090E0880F991FDC01AA0FBB1FAA0FBB1F39
:1015F0008A0F9B1FDC01A20FB31FAE51BD4F8C2D74
:1016000090E0880F991FEC01CC0FDD1FCC0FDD1F80
:101610008C0F9D1F280F391FE901CE51DD4F8981A5
:101620008F5F11968C938C2D90E09C012150310995
:1016300027303105A0F5D901AA0FBB1FA901440F1E
:10164000551F440F551F440F551FA40FB51FC6E467
:10165000C69FA001C79F500D1124A40FB51FAE5106
:10166000BD4F4C9141111BC0D901AA0FBB1FA9014D
:10167000440F551F440F551F440F551FA40FB51F8E
:10168000C69FA001C79F500D1124A40FB51FAE51D6
:10169000BD4F11964C9111974F5F11964C9341E0BD
:1016A0004B15B8F1AB014F5F5F4FEC01CC0FDD1F65
:1016B000DC01AA0FBB1FAA0FBB1FAA0FBB1FAC0FD9
:1016C000BD1F16E4149FE001159FD00D1124AC0F2F
:1016D000BD1FAE51BD4FAC91A1111BC0EC01CC0F91
:1016E000DD1FDC01AA0FBB1FAA0FBB1FAA0FBB1F68
:1016F000AC0FBD1F149FE001159FD00D1124AC0F3E
:10170000BD1FAE51BD4F11964C9111974F5F119671
:101710004C93C5E0CC1588F1AC014F5F5F4FEA01F7
:10172000CC0FDD1FDA01AA0FBB1FAA0FBB1FAA0F28
:10173000BB1FAC0FBD1F16E4169FE001179FD00D15
:101740001124AC0FBD1FAE51BD4FAC91A11115C0FE
:10175000DA01AA0FBB1F440F551F440F551F440F3A
:10176000551FA40FB51FAC0FBD1FAE51BD4F119635
:101770004C9111974F5F11964C934B01DFEF8D1AEF
:101780009D0A43E084169104D4F5DC01AA0FBB1F27
:10179000AC01440F551F440F551F440F551FA40F94
:1017A000B51F16E4189DA001199D500D1124A40F1A
:1017B000B51FAE51BD4F11964C91442319F1DC0178
:1017C000AA0FBB1FAC01440F551F440F551F440FF8
:1017D000551FA40FB51F189DA001199D500D112470
:1017E000A40FB51FAE51BD4F4C9141110EC0DB2C63
:1017F000D39441E04093D600FF24F39408C0DB2C3F
:10180000F12C05C0DB2CF12C02C0DB2CF12C332396
:10181000E4F1D901AA0FBB1FA901440F551F440FC2
:10182000551F440F551FA40FB51F16E4169FA001A6
:10183000179F500D1124A40FB51FAE51BD4F119627
:101840004C91442321F1D901AA0FBB1FA901440FD8
:10185000551F440F551F440F551FA40FB51F169F4A
:10186000A001179F500D1124A40FB51FAE51BD4FFD
:101870004C9141110EC0AC2CAA9441E04093D6008B
:10188000DB2C6894FF24F1F805C0AC2C03C0AC2C11
:1018900001C0AC2CFF23E4F1DC01AA0FBB1FAC019B
:1018A000440F551F440F551F440F551FA40FB51F5C
:1018B00016E41E9FA0011F9F500D1124A40FB51FF9
:1018C000AE51BD4F11964C91442311F1DC01AA0F8A
:1018D000BB1FAC01440F551F440F551F440F551F2C
:1018E000A40FB51F1E9FA0011F9F500D1124A40F10
:1018F000B51FAE51BD4F4C9141110AC0DB2CDA949B
:1019000041E04093D600AC2C0F2EF3E0FF2EF02DDB
:10191000DC011196A730B10534F58D01000F111FC0
:10192000AD01440F551F440F551F440F551F040FA1
:10193000151F0F2EF6E4EF2EF02DE69EA001E79E78
:10194000500D1124400F511F4E515D4FEA01498146
:10195000442349F04881411106C0AC2CA394109255
:10196000D600DB2C33C1F110A9C04091D6004F5FE7
:101970004093D600D3E08D16910404F58C01000F3E
:10198000111FAC01440F551F440F551F440F551F25
:10199000040F151F0F2EF6E4FF2EF02DF89CA0016A
:1019A000F99C500D1124400F511F4E515D4FEA011B
:1019B0004881423019F0DB2CD394AC2C332304F152
:1019C0008901000F111FA901440F551F440F551F16
:1019D000440F551F040F151F0F2EF6E4FF2EF02D98
:1019E000F69EA001F79E500D1124400F511F4E513D
:1019F0005D4FEA014881423019F0AC2CAA94DB2CEF
:101A0000FF2304F18C01000F111FAC01440F551F7F
:101A1000440F551F440F551F040F151F0F2EF6E4DA
:101A2000FF2EF02DFE9EA001FF9E500D1124400FB1
:101A3000511F4E515D4FEA014881423019F0DB2CB5
:101A4000DA94AC2CA730B10504F58D01000F111FFD
:101A5000AD01440F551F440F551F440F551F040F70
:101A6000151F0F2EF6E4FF2EF02DF69EA001F79E17
:101A7000500D1124400F511F4E515D4FEA01488116
:101A8000423019F0AC2CA394DB2C7C01EE0CFF1C33
:101A90008C01000F111F000F111F000F111FE00E0E
:101AA000F11E46E4469F8001479F100D11240E0D44
:101AB0001F1D0E511D4F42E0E80148834091D600A2
:101AC00041504093D600453008F480C04091DE007C
:101AD00041117CC045E04093D600A730B105DCF44D
:101AE000AD01440F551FAA0FBB1FAA0FBB1FAA0FA2
:101AF000BB1FA40FB51F16E4169FA001179F500D22
:101B00001124A40FB51FAE51BD4F4C91423019F0B6
:101B1000AC2CA394DB2CFF23ECF0DC01AA0FBB1F41
:101B2000AC01440F551F440F551F440F551FA40F00
:101B3000B51F16E41E9FA0011F9F500D1124FD012B
:101B4000E40FF51FEE51FD4F4081423019F0DB2CC0
:101B5000DA94AC2CD3E08D169104DCF4FC01EE0F8A
:101B6000FF1F880F991F880F991F880F991FE80F73
:101B7000F91F86E4889DA001899D500D1124E40F72
:101B8000F51FEE51FD4F8081823019F0DB2CD3948C
:101B9000AC2C3323DCF0F901EE0FFF1F220F331FB3
:101BA000220F331F220F331FE20FF31F26E4269F5D
:101BB000C001279F900D1124E80FF91FEE51FD4F32
:101BC0008081823019F0AC2CAA94DB2C0E94E000BA
:101BD00061E082E00E94030188E20E94700080912F
:101BE000E300805D0E9470008CE20E947000809192
:101BF000E200805D0E94700089E20E9470008DEC1E
:101C000090E00E94EA0083ED90E00E94EA008D2DB2
:101C1000805D0E9470008CE20E9470008A2D805DC1
:101C20000E94700089E20E94700067E081E00E94DB
:101C30000301809161000E9411018091DE008111F9
:101C400008C02A2D4D2D6091E2008091E3000E9492
:101C5000E906DF91CF911F910F91FF90EF90DF90F8
:101C6000CF90BF90AF909F908F9008950F931F9348
:101C7000CF93DF931092DB0000E02091E7004091CA
:101C8000E6006091E2008091E3000E948107D82F76
:101C90008091D700823090F1C1E010E02C2F30E02D
:101CA000220F331FD901AA0FBB1FAA0FBB1F2A0F78
:101CB0003B1FD901AC51BF4F2C2F30E0220F331FF7
:101CC000F901EE0FFF1FEE0FFF1F2E0F3F1FF9014F
:101CD000EC51FF4F00E013962C9142816091E2009D
:101CE0008091E3000E9481078D1710F4D82F1C2FDC
:101CF000CF5F8091D700C81788F201C010E00E9422
:101D0000E00082E00E9478012FEF31EE84E0215064
:101D100030408040E1F700C0000012BA812F90E00F
:101D2000880F991FDC01AA0FBB1FAA0FBB1F8A0FC8
:101D30009B1FDC01AC51BF4F812F90E0880F991F92
:101D4000FC01EE0FFF1FEE0FFF1F8E0F9F1FFC0108
:101D5000EC51FF4F01E013962C9142816091E2001B
:101D60008091E3000E948107812F90E0880F991FE6
:101D7000FC01EE0FFF1FEE0FFF1F8E0F9F1FFC01D8
:101D8000EC51FF4F812F90E0880F991FDC01AA0FC3
:101D9000BB1FAA0FBB1F8A0F9B1FDC01AC51BF4F9B
:101DA00012962C91838190E0880F991FFC01EE0F11
:101DB000FF1FEE0FFF1F8E0F9F1FFC0136E4239FB6
:101DC000E00DF11D1124EE51FD4FC1E0C08362E032
:101DD000812F0E9442031093E10082E00E94A6013D
:101DE0008FEF93E026EA815090402040E1F700C059
:101DF000000082E00E949C013FEF85EA9EE03150A6
:101E000080409040E1F700C00000C093DB0082E01A
:101E10000E94D506809162008E3431F48091E200F8
:101E200081508093E20017C0853431F48091E30043
:101E30008F5F8093E3000FC0873531F48091E3001A
:101E400081508093E30007C0833529F48091E2003C
:101E50008F5F8093E200DF91CF911F910F910895E2
:101E60000F930E94E00012BA2091E100822F90E0CF
:101E7000880F991FDC01AA0FBB1FAA0FBB1F8A0F77
:101E80009B1FDC01A851BE4F822F90E0880F991F45
:101E9000FC01EE0FFF1FEE0FFF1F8E0F9F1FFC01B7
:101EA000E851FE4F01E013962C9142816091E200CF
:101EB0008091E3000E9481078091E100282F30E0AB
:101EC000220F331FF901EE0FFF1FEE0FFF1F2E0F22
:101ED0003F1FF901E851FE4F282F30E0220F331F3A
:101EE000D901AA0FBB1FAA0FBB1F2A0F3B1FD90185
:101EF000A851BE4F12969C91238130E0220F331FD0
:101F0000F901EE0FFF1FEE0FFF1F2E0F3F1FF9010C
:101F100046E4949FE00DF11D1124EA5EFE4F93E02C
:101F2000908363E00E94420312BA83E00E9478012A
:101F30008FEF98EF25E1815090402040E1F700C0FD
:101F4000000083E00E949C014FEF87E893E141503D
:101F500080409040E1F700C0000083E00E94A601AD
:101F60002FEF4BE782E9215040408040E1F700C06D
:101F7000000012BA1092DB000E9469040F910895CC
:041F8000F894FFCF03
:101F840005014E496E697469616C697A696E672EE0
:101F94002E2E00506C6561736520576169742E2E76
:101FA4002E00424F542040205374617274204E6FAF
:101FB400646500424C4F434B2053454152434820F3
:101FC4004D4F44002020534F4C5645204D4F44451F
:101FD400004E4F572C20524F424F5420495300611A
:101FE400742000424C4F434B0020402000202D2DF4
:061FF4003E200028000061
:00000001FF
