:100000000C942A000C9447000C9447000C94470071
:100010000C9447000C9447000C9447000C94470044
:100020000C9447000C9447000C9447000C94470034
:100030000C9447000C9447000C9447000C94470024
:100040000C9447000C9447000C9447000C94470014
:100050000C94470011241FBECFE5D8E0DEBFCDBF12
:1000600010E0A0E6B0E0EAE2F2E202C005900D92F4
:10007000A83FB107D9F725E0A8EFB0E001C01D9275
:10008000A230B207E1F70E94DE030C9413110C9426
:1000900000009BB3282F207F9F70922B9BBBDA9888
:1000A000DB9AEFE8F1E03197F1F700C00000DB9850
:1000B000EFEAF4E03197F1F700C000002BB3F0E174
:1000C0008F9FC0011124922F9F70892B8BBBDB9ACD
:1000D0008FEA94E00197F1F700C00000DB980895E3
:1000E0009BB3282F207F9F70922B9BBBDA9ADB9AC1
:1000F000EFE1F3E03197F1F700C00000DB98EFE1AA
:10010000F3E03197F1F700C000002BB3F0E18F9FCF
:10011000C0011124922F9F70892B8BBBDB9A8FE13A
:1001200093E00197F1F700C00000DB9808958CEF91
:100130008ABBDB982FEF83EC99E021508040904000
:10014000E1F700C0000083E30E9449002FEF89EF30
:1001500090E0215080409040E1F700C0000082E331
:100160000E9449002FEF89EF90E02150804090409D
:10017000E1F700C0000088E20E9449002FEF89EFFC
:1001800090E0215080409040E1F700C000008CE0FA
:100190000E9449002FEF89EF90E02150804090406D
:1001A000E1F700C0000081E00E9449002FEF89EFD5
:1001B00090E0215080409040E1F700C00000089599
:1001C00081E00E9449008FE39FE10197F1F700C0B1
:1001D000000008951F93CF93DF93EC01888188235B
:1001E00071F010E00E9470001F5F85E38A95F1F7BF
:1001F0000000FE01E10FF11D80818111F3CFDF913D
:10020000CF911F910895813029F4862F81580E9443
:1002100049000895823021F4862F81540E944900BC
:100220000895CF93DF93C82FDDEC8D9FD12D11243E
:10023000D695D695D6958D2F805D0E947000DD0FE6
:100240008D2F880F880FD80F8C2F8D1B805D0E94FB
:100250007000DF91CF91089514BA8FEF85BB81BBF9
:1002600012BA089580E090E046E430E012C0DF0169
:1002700011978C932083DF0113971C92DF01129753
:100280001C922F5F3A96273091F7019685309105A1
:1002900049F0489FF001499FF00D1124E955FC4FAA
:1002A000232FE5CF089520916000222389F030E0CC
:1002B000E9E9F2E080E090E052E0DF0111975C9321
:1002C000482F4F5F408301963A9682179307A8F311
:1002D000089583E087BB81E088BB2FEF87E893E137
:1002E000215080409040E1F700C0000018BA089506
:1002F00092B312BA823081F028F4882349F0813019
:10030000D1F408C0843081F058F08530A1F410C0D9
:10031000979A0895969A089582B3806C82BB089547
:1003200082B3806382BB089582B3806982BB0895E3
:1003300082B3806682BB089592B312BA823011F400
:10034000909A0895833009F4919A089592B312BA5D
:10035000823011F4929A0895833009F4939A0895A3
:1003600012BA809162008E3431F4809104018F5F63
:100370008093040117C0853431F4809105018150C8
:10038000809305010FC0873531F4809105018F5F9F
:100390008093050107C0833529F4809104018150C1
:1003A00080930401809101018F5F809301010E947D
:1003B0006901089583B3877069F48091FF0081110A
:1003C00009C081E08093FF00809101018F5F8093DD
:1003D0000101089583B3877041F48091FF0081305B
:1003E00021F483E00E947801089583E00E9478015F
:1003F000089512BA2FEF30E792E02150304090403C
:10040000E1F700C00000811148C082E00E9478013D
:100410002FEF32E587E0215030408040E1F700C007
:10042000000084E00E9478019FEF29E638E19150B6
:1004300020403040E1F700C0000083B38770873070
:1004400019F484E00E9478018FE799EA23E0815053
:1004500090402040E1F700C0000012BA8091620095
:100460008E3459F020F4853409F05FC00AC083351A
:1004700081F0873509F059C008C087E58093620094
:1004800008958EE480936200089583E5809362006E
:10049000089585E4809362000895813009F045C095
:1004A00082E00E9478013FEF82E597E03150804082
:1004B0009040E1F700C0000085E00E9478012FEF36
:1004C00039E688E1215030408040E1F700C000006B
:1004D00083B38770873019F485E00E9478019FE725
:1004E00029EA33E0915020403040E1F700C000009D
:1004F00012BA809162008E3449F018F48534A9F460
:1005000009C0833579F0873581F408C085E480938C
:100510006200089583E58093620008958EE48093DD
:100520006200089587E580936200089512BA2FEF64
:1005300081EE94E0215080409040E1F700C000003F
:1005400082E00E9478012FEF82E597E02150804001
:100550009040E1F700C0000084E00E9478012FEF96
:1005600089ED9FE2215080409040E1F700C00000FB
:1005700012BA83B38770873019F484E00E9478013F
:100580002FEF81EE94E0215080409040E1F700C0D1
:10059000000012BA809162008E3449F018F485345C
:1005A000A9F409C0833579F0873581F408C083E563
:1005B000809362000BC087E58093620007C085E4EA
:1005C0008093620003C08EE4809362008091F80003
:1005D0008F5F8093F80008950F931F93CF93DF935D
:1005E000CDB7DEB72A970FB6F894DEBF0FBECDBFEA
:1005F00009831A832B833C834D835E836F837887C3
:1006000089879A872091FB00A22FB0E0AA0FBB1F19
:10061000CD01880F991F880F991FA80FB91FA853E4
:10062000BD4F8AE0FE01319601900D928A95E1F767
:100630002F5F2093FB002A960FB6F894DEBF0FBE03
:10064000CDBFDF91CF911F910F9108952091FA00B6
:100650002F5F2093FA0030E021503109F901EE0FAD
:10066000FF1F220F331F220F331F220F331FE20FF2
:10067000F31FE853FD4F2AE0DC0101900D922A950B
:10068000E1F70895623041F52091F900A82FB0E01C
:10069000AA0FBB1FCD01880F991F880F991FA80FA4
:1006A000B91FAA5FBE4F822F90E00197FC01EE0FA9
:1006B000FF1F880F991F880F991F880F991FE80F38
:1006C000F91FEA5FFE4F8AE001900D928A95E1F7EB
:1006D00021502093F9000895633039F5209160008E
:1006E000A82FB0E0AA0FBB1FCD01880F991F880F5C
:1006F000991FA80FB91FAA56BD4F822F90E00197EE
:10070000FC01EE0FFF1F880F991F880F991F880F9C
:10071000991FE80FF91FEA56FD4F8AE001900D92EC
:100720008A95E1F72150209360000895CF9340917E
:10073000F900442319F150E0E9E0F1E020E030E075
:10074000C6E472E0DF0111976C91808190E0880F20
:10075000991FDC01AA0FBB1FAA0FBB1F8A0F9B1F8B
:10076000DC01C69FA00DB11D1124AC55BC4F7C937C
:100770002F5F3F4F3A962417350720F3CF91089506
:1007800080E090E046E430E00FC0DF0111978C93E9
:100790002083DF0113971C922F5F3A962730A9F729
:1007A00001968530910549F0489FF001499FF00D71
:1007B0001124E955FC4F232FE8CF08958091FC00C8
:1007C000811158C00E9497000E942C010E943201A2
:1007D00061E081E00E94030183E690E00E94EA006C
:1007E00061E082E00E94030183E790E00E94EA005A
:1007F0002FEF83ED90E3215080409040E1F700C05F
:10080000000012E0C4EAD3E001E093B39770E9F787
:100810000E9469010E94E00082E890E00E94EA00E4
:100820002FEF83ED90E3215080409040E1F700C02E
:10083000000010930001812F0E94C6061092000153
:10084000109205011092040108830E94E00083E9E0
:1008500090E00E94EA00812F0E9478012FEF83EC44
:1008600099E0215080409040E1F700C000000E94D4
:10087000CB0BCBCF0E94E00084EA90E00E94EA001C
:100880002FEF83ED90E3215080409040E1F700C0CE
:10089000000081E0809300010E94C0030E94960343
:1008A0000E945301C5E00E94E0000E94460F0E9492
:1008B0006810C150C1F701E020E040E06091040100
:1008C000809105010E94720712BA0E9469012FEF00
:1008D00081EE94E0215080409040E1F700C000009C
:1008E0000E9469012FEF81EE94E0215080409040FA
:1008F000E1F700C000000E9469010E94E00081EB66
:1009000090E00E94EA00FFCFCF93DF9383E00E9444
:1009100078012FEF88EF95E1215080409040E1F77A
:1009200000C0000012BA81EA8FBD81E08EBD83B3A2
:10093000877061F0C4EBD0E0DBBDCABDD9BDC8BDD6
:1009400083E00E94780183B38770B1F712BA82E026
:100950000E9478012FEF83EC99E021508040904075
:10096000E1F700C0000012BA1FBC1EBC8FEF90E080
:100970009BBD8ABD99BD88BD809162008E3431F4E3
:100980008091040181508093040117C0853431F4B3
:10099000809105018F5F809305010FC0873531F489
:1009A0008091050181508093050107C0833529F4AA
:1009B000809104018F5F8093040181E08093FF00A8
:1009C00080910001811106C08091F900853010F4FA
:1009D0000E94CB0B8091F900853059F48091000181
:1009E000811107C081E08093FC00809300010E9488
:1009F000DE03DF91CF91089581E08093FE00809126
:100A00000001811191C03091020120910501832FD5
:100A100090E0880F991FFC01EE0FFF1FEE0FFF1FE4
:100A20008E0F9F1FFC01EA5FFE4F2283409104015D
:100A3000832F90E0880F991FFC01EE0FFF1FEE0F30
:100A4000FF1F8E0F9F1FFC01EA5FFE4F4383842F21
:100A500090E0880F991FFC01EE0FFF1FEE0FFF1FA4
:100A60008E0F9F1F56E4259F90011124FC01E20F79
:100A7000F31FEC55FC4F82E08083842F90E0880FB9
:100A8000991FFC01EE0FFF1FEE0FFF1F8E0F9F1F20
:100A9000280F391FF901EC55FC4F8FEF81830E941D
:100AA000E00082EC90E00E94EA00809102018F5CFD
:100AB0000E94700088EC90E00E94EA0088E20E94A8
:100AC00070008091020190E0880F991FFC01EE0FE9
:100AD000FF1FEE0FFF1F8E0F9F1FFC01EA5FFE4FEF
:100AE0008281805D0E9470008CE20E947000809183
:100AF000020190E0880F991FFC01EE0FFF1FEE0F1F
:100B0000FF1F8E0F9F1FFC01EA5FFE4F8381805DF8
:100B10000E94700089E20E947000809161008F5FE6
:100B2000809361000E948404089583B3887F803F8E
:100B3000A9F48091FE00811111C08091FD00811106
:100B40000DC00E94B001109202018091F9008F5FE8
:100B50008093F9000E94FC0481E0089583B3887FAC
:100B6000803EB1F48091FE00811112C08091FD00A1
:100B700081110EC00E94B00181E08093020180913A
:100B8000F9008F5F8093F9000E94FC0481E00895D2
:100B900083B3887F803CB1F48091FE00811112C044
:100BA0008091FD0081110EC00E94B00182E080930F
:100BB00002018091F9008F5F8093F9000E94FC048C
:100BC00081E0089583B3887F8038B1F48091FE007E
:100BD000811112C08091FD0081110EC00E94B001F0
:100BE00083E0809302018091F9008F5F8093F90088
:100BF0000E94FC0481E0089583B3887FB1F4809162
:100C0000FE00811112C08091FD0081110EC00E9472
:100C1000B00184E0809302018091F9008F5F80939E
:100C2000F9000E94FC0481E008951092FE0080E02B
:100C300008950E949505813021F412BA0E9469013D
:100C4000089583B3877009F064C08091FF0081111B
:100C500060C081E08093FF00809101018F5F8093ED
:100C60000101809162008E3431F4809104018F5F24
:100C70008093040117C0853431F4809105018150BF
:100C8000809305010FC0873531F4809105018F5F96
:100C90008093050107C0833529F4809104018150B8
:100CA000809304018091000181116FC020910501A2
:100CB00040910401842F90E0880F991FFC01EE0FF2
:100CC000FF1FEE0FFF1F8E0F9F1F56E4259F900101
:100CD0001124FC01E20FF31FEC55FC4F81E08083EF
:100CE000842F90E0880F991FFC01EE0FFF1FEE0F7D
:100CF000FF1F8E0F9F1F280F391FF901EC55FC4F66
:100D00001182809161008F5F809361000E94CB0B04
:100D1000089583B3877041F48091FF00813021F4FE
:100D200082E00E947801089583B38770853031F4A2
:100D300082E00E9478011092FF00089583B38770CB
:100D4000813031F480E00E9478011092FF00089514
:100D500083B38770833031F480E00E947801109271
:100D6000FF00089583B38770843031F481E00E94DE
:100D700078011092FF00089583B38770863029F4BC
:100D800081E00E9478011092FF0008951092010105
:100D9000823039F40E941906809101018823D1F331
:100DA0000895833031F40E94DA0180910101882393
:100DB000D1F30895481304C0261302C012BA08954F
:100DC000621718F5809162008E3421F482E00E944F
:100DD000C6060895853439F480E00E94F90182E066
:100DE0000E94C6060895873539F481E00E94F90112
:100DF00082E00E94C6060895833509F072C00E9401
:100E0000960282E00E94C6060895261718F5809182
:100E100062008E3431F40E94960282E00E94C6067F
:100E20000895853439F481E00E94F90182E00E943E
:100E3000C6060895873539F480E00E94F90182E002
:100E40000E94C6060895833509F04BC082E00E94D7
:100E5000C6060895841710F5809162008E3439F427
:100E600080E00E94F90182E00E94C6060895853460
:100E700031F40E94960282E00E94C60608958735EA
:100E800021F482E00E94C6060895833551F581E081
:100E90000E94F90182E00E94C6060895481708F5ED
:100EA000809162008E3439F481E00E94F90182E081
:100EB0000E94C6060895853421F482E00E94C60689
:100EC0000895873531F40E94960282E00E94C6069A
:100ED0000895833531F480E00E94F90182E00E9498
:100EE000C60608952F923F924F925F926F927F9223
:100EF0008F929F92AF92BF92CF92DF92EF92FF922A
:100F00000F931F93CF93DF93CDB7DEB7C35AD109A9
:100F10000FB6F894DEBF0FBECDBFCF55DF4F48836D
:100F2000C15AD040CE55DF4F2883C25AD040CD554C
:100F3000DF4F0883C35AD04020E030E016E470E071
:100F400054E113C0DF0111975C931082DF01139706
:100F50004C93DF0112979C939F5F3A96973091F7DD
:100F60002F5F3F4F2530310551F0422F129FF00186
:100F7000139FF00D1124E35CFE4F972FE3CF262F34
:100F800030E0220F331FF901EE0FFF1FEE0FFF1F9E
:100F90002E0F3F1F46E4849FC0011124F901E80F82
:100FA000F91FE85CFE4F1482262F30E0220F331F1A
:100FB000F901EE0FFF1FEE0FFF1F2E0F3F1FF9016C
:100FC000E80FF91FE85CFE4F21E025831092FB003B
:100FD0001092FA00262F30E0220F331FF901EE0F96
:100FE000FF1FEE0FFF1F2E0F3F1FF901E80FF91F24
:100FF000E85CFE4F0081118122813381448155815B
:1010000066817781808591850E94EC020F2EF6E43F
:101010007F2EF02D44244394ADC2CE0101960E9450
:1010200026036B805C80E52CF12C67018FEFC81ADA
:10103000D80A97E0C916D1040CF0A4C0F601EE0F4F
:10104000FF1FC601880F991F880F991F880F991FCE
:10105000E80FF91F862C912C769CE00DF11D1124D0
:10106000E85CFE4F858181118DC0F601EE0FFF1FF8
:10107000C601880F991F880F991F880F991FE80FC5
:10108000F91F789CC001799C900D1124E80FF91F7D
:10109000E85CFE4F8081833009F474C08091FD00CC
:1010A0008130C9F4F601EE0FFF1FC601880F991FAA
:1010B000880F991F880F991FE80FF91F789CC001AE
:1010C000799C900D1124E80FF91FEC55FC4F80819D
:1010D000823009F457C05601AA0CBB1CC601880F08
:1010E000991F880F991F880F991FA80EB91E789C09
:1010F0001001799C300C1124C501820D931D0F2E17
:10110000F8E3AF2EF1E0BF2EF02DA80EB91ED501E9
:101110000C9111961C91119712962C91129713967F
:101120003C91139714964C91149715965C911597D2
:1011300016966C91169717967C91179718968C9126
:10114000189719969C910E94EC02F701EE0FFF1F71
:10115000C701880F991F880F991F880F991FE80FE3
:10116000F91FE20DF31DE85CFE4F24812F5FF501AE
:1011700045828481281730F4F50124836682178222
:1011800050861186A62CB12C6501F1E0CF1AD1084A
:101190000AF49EC0F701EE0FFF1FC701880F991FC9
:1011A000880F991F880F991FE80FF91F7C9CC001B9
:1011B0007D9C900D1124E80FF91FE85CFE4F85819E
:1011C000811186C0F701EE0FFF1FC701880F991F1D
:1011D000880F991F880F991FE80FF91F7C9CC00189
:1011E0007D9C900D1124E80FF91FE85CFE4F808173
:1011F000833009F46DC08091FD008130C9F4F7019E
:10120000EE0FFF1FC701880F991F880F991F880FC6
:10121000991FE80FF91F7C9CC0017D9C900D112443
:10122000E80FF91FEC55FC4F8081823009F450C063
:101230001701220C331CC701880F991F880F991FB3
:10124000880F991F280E391E7C9C40017D9C900CB4
:101250001124C101880D991D0F2EF8E38F2EF1E0A6
:101260009F2EF02D880E991ED4010C9111961C9181
:10127000119712962C91129713963C9113971496EE
:101280004C91149715965C91159716966C9116973C
:1012900017967C91179718968C91189719969C9190
:1012A0000E94EC027A9CF0017B9CF00D1124E20D6F
:1012B000F31DE85CFE4F24812F5FF4014582848199
:1012C000281730F4F4012483668217825086118631
:1012D0006701F1E0CF1AD1080AF4A5C0F601EE0FBC
:1012E000FF1FC601880F991F880F991F880F991F2C
:1012F000E80FF91F7A9CC0017B9C900D1124E80F28
:10130000F91FE85CFE4F858181118DC0F601EE0F5B
:10131000FF1FC601880F991F880F991F880F991FFB
:10132000E80FF91F7A9CC0017B9C900D1124E80FF7
:10133000F91FE85CFE4F8081833009F474C080910E
:10134000FD008130C9F4F601EE0FFF1FC601880FC2
:10135000991F880F991F880F991FE80FF91F7A9C12
:10136000C0017B9C900D1124E80FF91FEC55FC4F38
:101370008081823009F457C04601880C991CC6014F
:10138000880F991F880F991F880F991F880E991E23
:101390007A9C10017B9C300C1124C401820D931D9A
:1013A0000F2EF8E38F2EF1E09F2EF02D880E991E60
:1013B000D4010C9111961C91119712962C911297B1
:1013C00013963C91139714964C91149715965C9133
:1013D000159716966C91169717967C9117971896F5
:1013E0008C91189719969C910E94EC02F701EE0FD0
:1013F000FF1FC701880F991F880F991F880F991F1A
:10140000E80FF91FE20DF31DE85CFE4F24812F5F0A
:10141000F40145828481281730F4F4012483668224
:101420001782508611866501FFEFCF1ADF0A25E08B
:10143000C216D1040CF09EC0F701EE0FFF1FC701CA
:10144000880F991F880F991F880F991FE80FF91FA0
:101450007C9CC0017D9C900D1124E80FF91FE85C75
:10146000FE4F8581811186C0F701EE0FFF1FC70176
:10147000880F991F880F991F880F991FE80FF91F70
:101480007C9CC0017D9C900D1124E80FF91FE85C45
:10149000FE4F8081833009F46DC08091FD00813062
:1014A000C9F4F701EE0FFF1FC701880F991F880FBE
:1014B000991F880F991FE80FF91F7C9CC0017D9C24
:1014C000900D1124E80FF91FEC55FC4F80818230FC
:1014D00009F450C01701220C331CC701880F991F53
:1014E000880F991F880F991F280E391E7C9C400178
:1014F0007D9C900C1124C101880D991D0F2EF8E3DD
:101500008F2EF1E09F2EF02D880E991ED4010C91A4
:1015100011961C91119712962C91129713963C914B
:10152000139714964C91149715965C9115971696EF
:101530006C91169717967C91179718968C9118971F
:1015400019969C910E94EC027A9CF0017B9CF00D14
:101550001124E20DF31DE85CFE4F24812F5FF4019E
:1015600045828481281730F4F4012483668217822F
:10157000508611868091FA00823209F04ECDCF5507
:10158000DF4FF881C15AD040FD87CE55DF4F28810B
:10159000C25AD0402E87822F90E0880F991FFC01FD
:1015A000EE0FFF1FEE0FFF1F8E0F9F1FFC01CF5589
:1015B000DF4F4881C15AD04036E4439FE00DF11D12
:1015C0001124E85CFE4F1481212F2150233108F0B3
:1015D000BDC0112309F4C4C0FE0177966E0188E1F5
:1015E000C80ED11C822F90E0880F991F9C01220FFA
:1015F000331F220F331F820F931FA1E2B0E0AC0F05
:10160000BD1F8A0F9B1FCE55DF4FF880C25AD040B6
:1016100006E42F2D30E0220F331FB901660F771F2C
:10162000660F771F260F371F049FA0011124240F78
:10163000351F285C3E4FD90116962C9120832F2D03
:1016400030E0220F331FB901660F771F660F771F37
:10165000260F371F420F531F485C5E4FDA01189662
:10166000FC90D601FC9240813A96BAE0CB0ED11C98
:10167000E817F90771F66CC0012F0E94E00061E0E5
:1016800082E00E94030188E20E947000E02EF12CAB
:101690006701CC0CDD1CC701880F991F880F991FAB
:1016A000880F991FC80ED91EE1E0F0E0EC0FFD1F76
:1016B000CE0EDF1ED6011C96BC908B2D805D0E9445
:1016C00070008CE20E947000F601D5848D2D805D43
:1016D0000E94700089E20E9470008CEC90E00E94F1
:1016E000EA0085EF90E00E94EA00F1E0EF1AF108CD
:1016F000C701880F991FEE0CFF1CEE0CFF1CEE0CAF
:10170000FF1CE80EF91E21E030E02C0F3D1FE20E19
:10171000F31ED7011C96CC908C2D805D0E9470002A
:101720008CE20E947000F701F5848F2D805D0E948D
:10173000700089E20E9470002F2D4C2D6D2D8B2D95
:101740000E94DA06015009F098CF0AC014E108C0DF
:10175000CD55DF4FF881C35AD040F13009F48CCF1A
:10176000812FCD55DF4F0FB6F894DEBF0FBECDBF32
:10177000DF91CF911F910F91FF90EF90DF90CF906D
:10178000BF90AF909F908F907F906F905F904F90A1
:101790003F902F9008958F929F92AF92BF92CF92D9
:1017A000DF92EF92FF920F931F93CF93DF93B0904E
:1017B0000501C09004016B2D70E0FB013197E5300D
:1017C000F105E8F58C2D90E0880F991FDC01AA0F38
:1017D000BB1FAA0FBB1F8A0F9B1F46E44E9F9001A1
:1017E0004F9F300D1124DC01A20FB31FAC55BC4F2D
:1017F0008C91811124C08C2D90E0880F991FDC0101
:10180000AA0FBB1FAA0FBB1F8A0F9B1FDC01A20FD1
:10181000B31FAC55BC4F8C2D90E0880F991FEC0185
:10182000CC0FDD1FCC0FDD1F8C0F9D1F280F391F24
:10183000E901CC55DC4F89818F5F11968C938C2DFB
:1018400090E09C012150310927303105A0F5D901E4
:10185000AA0FBB1FA901440F551F440F551F440F6A
:10186000551FA40FB51FC6E4C69FA001C79F500D0A
:101870001124A40FB51FAC55BC4F4C9141111BC096
:10188000D901AA0FBB1FA901440F551F440F551FB3
:10189000440F551FA40FB51FC69FA001C79F500D31
:1018A0001124A40FB51FAC55BC4F11964C91119744
:1018B0004F5F11964C9343E04B15B8F1AB014F5F6E
:1018C0005F4FEC01CC0FDD1FDC01AA0FBB1FAA0F7D
:1018D000BB1FAA0FBB1FAC0FBD1F16E4149FE00176
:1018E000159FD00D1124AC0FBD1FAC55BC4FAC9152
:1018F000A1111BC0EC01CC0FDD1FDC01AA0FBB1F27
:10190000AA0FBB1FAA0FBB1FAC0FBD1F149FE00186
:10191000159FD00D1124AC0FBD1FAC55BC4F1196B7
:101920004C9111974F5F11964C93C5E0CC1588F1FF
:10193000AC014F5F5F4FEA01CC0FDD1FDA01AA0F48
:10194000BB1FAA0FBB1FAA0FBB1FAC0FBD1F16E406
:10195000169FE001179FD00D1124AC0FBD1FAC5591
:10196000BC4FAC91A11115C0DA01AA0FBB1F440FE7
:10197000551F440F551F440F551FA40FB51FAC0F23
:10198000BD1FAC55BC4F11964C9111974F5F1196EE
:101990004C934B01DFEF8D1A9D0A45E084169104AC
:1019A000D4F5DC01AA0FBB1FAC01440F551F440F37
:1019B000551F440F551FA40FB51F16E4189DA00115
:1019C000199D500D1124A40FB51FAC55BC4F119695
:1019D0004C91442319F1DC01AA0FBB1FAC01440F49
:1019E000551F440F551F440F551FA40FB51F189DB9
:1019F000A001199D500D1124A40FB51FAC55BC4F6B
:101A00004C9141110EC0DB2CD39441E04093F8007F
:101A1000FF24F39408C0DB2CF12C05C0DB2CF12C47
:101A200002C0DB2CF12C3323E4F1D901AA0FBB1F38
:101A3000A901440F551F440F551F440F551FA40FF4
:101A4000B51F16E4169FA001179F500D1124A40F77
:101A5000B51FAC55BC4F11964C91442321F1D901CF
:101A6000AA0FBB1FA901440F551F440F551F440F58
:101A7000551FA40FB51F169FA001179F500D1124CD
:101A8000A40FB51FAC55BC4F4C9141110EC0AC2CEE
:101A9000AA9441E04093F800DB2C6894FF24F1F80D
:101AA00005C0AC2C03C0AC2C01C0AC2CFF23E4F16E
:101AB000DC01AA0FBB1FAC01440F551F440F551F7B
:101AC000440F551FA40FB51F16E41E9FA0011F9FB2
:101AD000500D1124A40FB51FAC55BC4F11964C915D
:101AE000442311F1DC01AA0FBB1FAC01440F551FA9
:101AF000440F551F440F551FA40FB51F1E9FA00173
:101B00001F9F500D1124A40FB51FAC55BC4F4C9115
:101B100041110AC0DB2CDA9441E04093F800AC2C70
:101B20000F2EF3E0FF2EF02DDC011196A730B1054A
:101B300034F58D01000F111FAD01440F551F440FE7
:101B4000551F440F551F040F151F0F2EF6E4EF2EDF
:101B5000F02DE69EA001E79E500D1124400F511F6D
:101B60004C555C4FEA014981442349F048814111B9
:101B700006C0AC2CA3941092F800DB2C37C1F110F6
:101B8000A9C04091F8004F5F4093F800FF2304F193
:101B90008C01000F111FAC01440F551F440F551F3E
:101BA000440F551F040F151F0F2EF6E4FF2EF02DC6
:101BB000FE9EA001FF9E500D1124400F511F4C5559
:101BC0005C4FEA014881413019F4DB2CDA94AC2CEB
:101BD000A730B10504F58D01000F111FAD01440FB1
:101BE000551F440F551F440F551F040F151F0F2E6F
:101BF000F6E4FF2EF02DF69EA001F79E500D112465
:101C0000400F511F4C555C4FEA014881413019F497
:101C1000AC2CA394DB2C332304F18901000F111F9A
:101C2000A901440F551F440F551F440F551F040FA2
:101C3000151F0F2EF6E4FF2EF02DF69EA001F79E45
:101C4000500D1124400F511F4C555C4FEA01488143
:101C5000413019F4AC2CAA94DB2CD5E08D169104FC
:101C600004F58C01000F111FAC01440F551F440FE8
:101C7000551F440F551F040F151F0F2EF6E4FF2E9E
:101C8000F02DF89CA001F99C500D1124400F511F1C
:101C90004C555C4FEA014881413019F4DB2CD39458
:101CA000AC2C7C01EE0CFF1C8C01000F111F000FEF
:101CB000111F000F111FE00EF11E46E4469F800128
:101CC000479F100D11240E0D1F1D0C551C4F42E097
:101CD000E80148834091F80041504093F8004530B6
:101CE00008F484C040910001411180C045E0409358
:101CF000F800D5E08D16910404F58C01000F111F3A
:101D0000AC01440F551F440F551F440F551F040FBE
:101D1000151F0F2EF6E4FF2EF02DF89CA001F99C64
:101D2000500D1124400F511FEA01CC55DC4F488162
:101D3000413019F4DB2CD394AC2C3323DCF0E901D3
:101D4000CC0FDD1F220F331F220F331F220F331F33
:101D5000C20FD31F26E4269FA001279F500D1124F8
:101D6000C40FD51FCC55DC4F2881213019F4AC2C81
:101D7000AA94DB2CFF23E4F09C01220F331F880F71
:101D8000991F880F991F880F991F820F931F46E490
:101D90004E9F90014F9F300D1124FC01E20FF31F65
:101DA000EC55FC4F8081813019F4DB2CDA94AC2C9B
:101DB000A730B105DCF4CD01880F991FAA0FBB1F16
:101DC000AA0FBB1FAA0FBB1FA80FB91F26E4269F8F
:101DD000C001279F900D1124A80FB91FAC55BC4F0F
:101DE0008C91813019F4AC2CA394DB2C0E94E00080
:101DF00061E082E00E94030188E20E94700080910D
:101E00000501805D0E9470008CE20E94700080914C
:101E10000401805D0E94700089E20E9470008CECD9
:101E200090E00E94EA0085EF90E00E94EA008D2D8C
:101E3000805D0E9470008CE20E9470008A2D805D9F
:101E40000E94700089E20E94700067E081E00E94B9
:101E50000301809161000E941101809100018111B4
:101E600008C02A2D4D2D60910401809105010E942A
:101E7000DA06DF91CF911F910F91FF90EF90DF90E5
:101E8000CF90BF90AF909F908F900895FF920F9347
:101E90001F93CF93DF931092FD0000E02091090182
:101EA0004091080160910401809105010E94720730
:101EB000182F2091F900223090F1F12CD1E02D2F34
:101EC00030E0220F331FD901AA0FBB1FAA0FBB1F7F
:101ED0002A0F3B1FD901AA5FBE4F2D2F30E0220FE2
:101EE000331FF901EE0FFF1FEE0FFF1F2E0F3F1FD5
:101EF000F901EA5FFE4F00E013962C914281609158
:101F00000401809105010E947207811710F4182FB7
:101F1000FD2EDF5F2091F900D21788F201C0F12C6D
:101F20002223A1F0E9E0F1E030E0DF01CF010197E9
:101F3000EC018881823031F48081813009F0B1C0B8
:101F4000AFC0F32E3F5F3A963213EFCF0E94E0000E
:101F500012BA8F2D90E0880F991FDC01AA0FBB1FCA
:101F6000AA0FBB1F8A0F9B1FDC01AA5FBE4F8F2DDC
:101F700090E0880F991FFC01EE0FFF1FEE0FFF1F6F
:101F80008E0F9F1FFC01EA5FFE4F01E013962C911C
:101F9000428160910401809105010E9472078F2D9A
:101FA00090E0880F991FFC01EE0FFF1FEE0FFF1F3F
:101FB0008E0F9F1FFC01EA5FFE4F8F2D90E0880F70
:101FC000991FDC01AA0FBB1FAA0FBB1F8A0F9B1F03
:101FD000DC01AA5FBE4F12962C91838190E0880F9E
:101FE000991FFC01EE0FFF1FEE0FFF1F8E0F9F1FAB
:101FF000FC01D6E42D9FE00DF11D1124EC55FC4FA2
:10200000D1E0D08362E08F2D0E944203F092030161
:1020100082E00E94A60161E081E00E94030182ED5E
:1020200090E00E94EA002FEF31E18AE72150304032
:102030008040E1F700C0000082E00E949C019FEF19
:10204000C5EA2EE09150C0402040E1F700C00000FA
:1020500012BAD093FD0082E00E94C6068091620011
:102060008E3431F4809104018150809304012AC0A0
:10207000853431F4809105018F5F8093050122C082
:10208000873531F4809105018150809305011AC094
:102090008335C1F4809104018F5F8093040112C0E5
:1020A000F32E8C91823009F4F32E8C91833009F455
:1020B000F32E8C91843009F4F32E8C91853009F045
:1020C00041CF3FCFDF91CF911F910F91FF900895A6
:1020D0000F9320910301822F90E0880F991FDC015C
:1020E000AA0FBB1FAA0FBB1F8A0F9B1FDC01AA569A
:1020F000BD4F822F90E0880F991FFC01EE0FFF1F4C
:10210000EE0FFF1F8E0F9F1FFC01EA56FD4F01E0EF
:1021100013962C91428160910401809105010E94E7
:10212000720780910301282F30E0220F331FF9013D
:10213000EE0FFF1FEE0FFF1F2E0F3F1FF901EA5694
:10214000FD4F282F30E0220F331FD901AA0FBB1FEC
:10215000AA0FBB1F2A0F3B1FD901AA56BD4F1296CB
:102160009C91238130E0220F331FF901EE0FFF1FF6
:10217000EE0FFF1F2E0F3F1FF90146E4949FE00D65
:10218000F11D1124E85CFE4F93E0908363E00E9410
:10219000420312BA83E00E9478018FEF98EF25E1A5
:1021A000815090402040E1F700C000000E94E00014
:1021B00083EE90E00E94EA0061E082E00E94030169
:1021C00080EF90E00E94EA0080910501805D0E940E
:1021D00070008CE20E94700080910401805D0E947A
:1021E000700089E20E94700083E00E949C014FEF22
:1021F00087E893E1415080409040E1F700C0000043
:1022000083E00E94A6012FEF47EA81E6215040407B
:102210008040E1F700C0000012BA1092FD000E9459
:0A22200084040F910895F894FFCF95
:10222A0005014E496E697469616C697A696E672E37
:10223A002E2E00506C6561736520576169742E2ECD
:10224A002E00424F542040205374617274204E6F06
:10225A00646500424C4F434B20534541524348204A
:10226A004D4F44002020534F4C5645204D4F444576
:10227A00005441534B20434F4D504C455445442143
:10228A002100424C4F434B0020402000202D2D3E80
:10229A002000202020204772697070696E67202014
:1022AA00202000202020506C6163696E6720400066
:0822BA00202020202028000054
:00000001FF
