S01700005374657020557020526F756E6420322E7372656312
S11300000C942A000C9447000C9447000C9447006D
S11300100C9447000C9447000C9447000C94470040
S11300200C9447000C9447000C9447000C94470030
S11300300C9447000C9447000C9447000C94470020
S11300400C9447000C9447000C9447000C94470010
S11300500C94470011241FBECFE5D8E0DEBFCDBF0E
S113006010E0A0E6B0E0E4EBF1E202C005900D92EE
S1130070A43DB107D9F724E0A4EDB0E001C01D927E
S1130080AF3DB207E1F70E94F7030C94D8100C942B
S113009000009BB3282F207F9F70922B9BBBDA9884
S11300A0DB9AEFE8F1E03197F1F700C00000DB984C
S11300B0EFEAF4E03197F1F700C000002BB3F0E170
S11300C08F9FC0011124922F9F70892B8BBBDB9AC9
S11300D08FEA94E00197F1F700C00000DB980895DF
S11300E09BB3282F207F9F70922B9BBBDA9ADB9ABD
S11300F0EFE1F3E03197F1F700C00000DB98EFE1A6
S1130100F3E03197F1F700C000002BB3F0E18F9FCB
S1130110C0011124922F9F70892B8BBBDB9A8FE136
S113012093E00197F1F700C00000DB9808958CEF8D
S11301308ABBDB982FEF83EC99E0215080409040FC
S1130140E1F700C0000083E30E9449002FEF89EF2C
S113015090E0215080409040E1F700C0000082E32D
S11301600E9449002FEF89EF90E021508040904099
S1130170E1F700C0000088E20E9449002FEF89EFF8
S113018090E0215080409040E1F700C000008CE0F6
S11301900E9449002FEF89EF90E021508040904069
S11301A0E1F700C0000081E00E9449002FEF89EFD1
S11301B090E0215080409040E1F700C00000089595
S11301C081E00E9449008FE39FE10197F1F700C0AD
S11301D0000008951F93CF93DF93EC018881882357
S11301E071F010E00E9470001F5F85E38A95F1F7BB
S11301F00000FE01E10FF11D80818111F3CFDF9139
S1130200CF911F910895813029F4862F81580E943F
S113021049000895823021F4862F81540E944900B8
S11302200895CF93DF93C82FDDEC8D9FD12D11243A
S1130230D695D695D6958D2F805D0E947000DD0FE2
S11302408D2F880F880FD80F8C2F8D1B805D0E94F7
S11302507000DF91CF91089514BA8FEF85BB81BBF5
S113026012BA089580E090E046E430E012C0DF0165
S113027011978C932083DF0113971C92DF0112974F
S11302801C922F5F3A96273091F70196853091059D
S113029049F0489FF001499FF00D1124EC57FC4FA1
S11302A0232FE5CF089520916000222389F030E0C8
S11302B0E6E7F2E080E090E052E0DF0111975C9322
S11302C0482F4F5F408301963A9682179307A8F30D
S11302D0089583E087BB81E088BB2FEF87E893E133
S11302E0215080409040E1F700C0000018BA089502
S11302F092B312BA823081F028F4882349F0813015
S1130300D1F408C0843081F058F08530A1F410C0D5
S1130310979A0895969A089582B3806C82BB089543
S113032082B3806382BB089582B3806982BB0895DF
S113033082B3806682BB089592B312BA823011F4FC
S1130340909A0895833009F4919A089592B312BA59
S1130350823011F4929A0895833009F4939A08959F
S113036012BA809162008E3431F48091E1008F5F83
S11303708093E10017C0853431F48091E20081500C
S11303808093E2000FC0873531F48091E2008F5FE3
S11303908093E20007C0833529F48091E100815005
S11303A08093E1008091DE008F5F8093DE000E94E5
S11303B06901089583B3877069F48091DC00811129
S11303C009C081E08093DC008091DE008F5F809320
S11303D0DE00089583B3877041F48091DC0081309E
S11303E021F483E00E947801089583E00E9478015B
S11303F0089512BA2FEF30E792E021503040904038
S1130400E1F700C00000811148C082E00E94780139
S11304102FEF32E587E0215030408040E1F700C003
S1130420000084E00E9478019FEF29E638E19150B2
S113043020403040E1F700C0000083B3877087306C
S113044019F484E00E9478018FE799EA23E081504F
S113045090402040E1F700C0000012BA8091620091
S11304608E3459F020F4853409F05FC00AC0833516
S113047081F0873509F059C008C087E58093620090
S113048008958EE480936200089583E5809362006A
S1130490089585E4809362000895813009F045C091
S11304A082E00E9478013FEF82E597E0315080407E
S11304B09040E1F700C0000085E00E9478012FEF32
S11304C039E688E1215030408040E1F700C0000067
S11304D083B38770873019F485E00E9478019FE721
S11304E029EA33E0915020403040E1F700C0000099
S11304F012BA809162008E3449F018F48534A9F45C
S113050009C0833579F0873581F408C085E4809388
S11305106200089583E58093620008958EE48093D9
S11305206200089587E580936200089512BA2FEF60
S113053081EE94E0215080409040E1F700C000003B
S113054082E00E9478012FEF82E597E021508040FD
S11305509040E1F700C0000084E00E9478012FEF92
S113056089ED9FE2215080409040E1F700C00000F7
S113057012BA83B38770873019F484E00E9478013B
S11305802FEF81EE94E0215080409040E1F700C0CD
S1130590000012BA809162008E3449F018F4853458
S11305A0A9F409C0833579F0873581F408C083E55F
S11305B0809362000BC087E58093620007C085E4E6
S11305C08093620003C08EE4809362008091D50022
S11305D08F5F8093D50008950F931F93CF93DF937C
S11305E0CDB7DEB72A970FB6F894DEBF0FBECDBFE6
S11305F009831A832B833C834D835E836F837887BF
S113060089879A872091D800A22FB0E0AA0FBB1F38
S1130610CD01880F991F880F991FA80FB91FAB55DB
S1130620BD4F8AE0FE01319601900D928A95E1F763
S11306302F5F2093D8002A960FB6F894DEBF0FBE22
S1130640CDBFDF91CF911F910F9108952091D700D5
S11306502F5F2093D70030E021503109F901EE0FCC
S1130660FF1F220F331F220F331F220F331FE20FEE
S1130670F31FEB55FD4F2AE0DC0101900D922A9502
S1130680E1F70895623041F52091D600A82FB0E03B
S1130690AA0FBB1FCD01880F991F880F991FA80FA0
S11306A0B91FAD51BF4F822F90E00197FC01EE0FAF
S11306B0FF1F880F991F880F991F880F991FE80F34
S11306C0F91FED51FF4F8AE001900D928A95E1F7F1
S11306D021502093D6000895633039F520916000AD
S11306E0A82FB0E0AA0FBB1FCD01880F991F880F58
S11306F0991FA80FB91FAD58BD4F822F90E00197E5
S1130700FC01EE0FFF1F880F991F880F991F880F98
S1130710991FE80FF91FED58FD4F8AE001900D92E3
S11307208A95E1F7215020936000089582E0809338
S1130730E50084E08093E6001092EF008093F000DF
S113074093E09093F90025E02093FA00809303014D
S11307501092040190930D0180930E010895CF939C
S11307604091D600442319F150E0E6EEF0E020E099
S113077030E0C6E472E0DF0111976C91808190E073
S1130780880F991FDC01AA0FBB1FAA0FBB1F8A0F7A
S11307909B1FDC01C69FA00DB11D1124AF57BC4F98
S11307A07C932F5F3F4F3A962417350720F3CF9160
S11307B0089580E090E046E430E00FC0DF01119737
S11307C08C932083DF0113971C922F5F3A96273076
S11307D0A9F701968530910549F0489FF001499F9A
S11307E0F00D1124EC57FC4F232FE8CF089580918E
S11307F0D900811158C00E9497000E942C010E94C8
S1130800320161E081E00E94030183E690E00E94EE
S1130810EA0061E082E00E94030183E790E00E9425
S1130820EA002FEF83ED90E3215080409040E1F700
S113083000C0000012E0C1E8D3E001E093B3977078
S1130840E9F70E9469010E94E00082E890E00E94BA
S1130850EA002FEF83ED90E3215080409040E1F7D0
S113086000C000001093DD00812F0E94DE0610926C
S1130870DD001092E2001092E10008830E94E00083
S113088083E990E00E94EA00812F0E9478012FEF13
S113089083EC99E0215080409040E1F700C00000D3
S11308A00E941A0CCBCF0E94E00084EA90E00E94E0
S11308B0EA002FEF83ED90E3215080409040E1F770
S11308C000C0000081E08093DD000E94D9030E94F3
S11308D096030E94AF030E945301C5E00E94E0000A
S11308E00E94950F0E944B10C150C1F712BA0E948A
S11308F069012FEF81EE94E0215080409040E1F7B0
S113090000C000000E9469012FEF81EE94E02150A5
S113091080409040E1F700C000000E9469010E94FD
S1130920E00081EB90E00E94EA00FFCFCF93DF93D9
S113093083E00E9478012FEF88EF95E121508040F9
S11309409040E1F700C0000012BA81EA8FBD81E057
S11309508EBD83B3877061F0C4EBD0E0DBBDCABD4C
S1130960D9BDC8BD83E00E94780183B38770B1F715
S113097012BA82E00E9478012FEF83EC99E02150B3
S113098080409040E1F700C0000012BA1FBC1EBCBA
S11309908FEF90E09BBD8ABD99BD88BD80916200B8
S11309A08E3431F48091E10081508093E10017C0CE
S11309B0853431F48091E2008F5F8093E2000FC0B0
S11309C0873531F48091E20081508093E20007C0C2
S11309D0833529F48091E1008F5F8093E10081E009
S11309E08093DC008091DD00811106C08091D600E7
S11309F0853010F40E941A0C8091D600853059F489
S1130A008091DD00811107C081E08093D90080933B
S1130A10DD000E94F703DF91CF91089581E0809378
S1130A20DB008091DD00811191C03091DF002091C5
S1130A30E200832F90E0880F991FFC01EE0FFF1F47
S1130A40EE0FFF1F8E0F9F1FFC01ED51FF4F2283FE
S1130A504091E100832F90E0880F991FFC01EE0F75
S1130A60FF1FEE0FFF1F8E0F9F1FFC01ED51FF4F65
S1130A704383842F90E0880F991FFC01EE0FFF1F22
S1130A80EE0FFF1F8E0F9F1F56E4259F9001112428
S1130A90FC01E20FF31FEF57FC4F82E08083842FA9
S1130AA090E0880F991FFC01EE0FFF1FEE0FFF1F50
S1130AB08E0F9F1F280F391FF901EF57FC4F8FEF3F
S1130AC081830E94E00082EC90E00E94EA00809121
S1130AD0DF008F5C0E94700088EC90E00E94EA00C6
S1130AE088E20E9470008091DF0090E0880F991FD7
S1130AF0FC01EE0FFF1FEE0FFF1F8E0F9F1FFC0167
S1130B00ED51FF4F8281805D0E9470008CE20E9453
S1130B1070008091DF0090E0880F991FFC01EE0FB8
S1130B20FF1FEE0FFF1F8E0F9F1FFC01ED51FF4FA4
S1130B308381805D0E94700089E20E947000809130
S1130B4061008F5F809361000E949604089583B3CF
S1130B50887F803FD9F48091DB00811117C0809198
S1130B60DA00811113C00E94B0018091D600811176
S1130B7004C091E09093DF0002C01092DF008F5F09
S1130B808093D6000E940E0581E0089583B3887F88
S1130B90803EB1F48091DB00811112C08091DA00B3
S1130BA081110EC00E94B00181E08093DF0080912A
S1130BB0D6008F5F8093D6000E940E0581E00895D1
S1130BC083B3887F803CB1F48091DB00811112C033
S1130BD08091DA0081110EC00E94B00182E08093FE
S1130BE0DF008091D6008F5F8093D6000E940E05AF
S1130BF081E0089583B3887F8038B1F48091DB006D
S1130C00811112C08091DA0081110EC00E94B001DE
S1130C1083E08093DF008091D6008F5F8093D600BD
S1130C200E940E0581E0089583B3887FB1F480911A
S1130C30DB00811112C08091DA0081110EC00E9484
S1130C40B00184E08093DF008091D6008F5F8093B1
S1130C50D6000E940E0581E008951092DB0080E02A
S1130C6008950E94A705813021F412BA0E946901F7
S1130C70089583B3877009F064C08091DC0081110A
S1130C8060C081E08093DC008091DE008F5F809300
S1130C90DE00809162008E3431F48091E1008F5F38
S1130CA08093E10017C0853431F48091E2008150D3
S1130CB08093E2000FC0873531F48091E2008F5FAA
S1130CC08093E20007C0833529F48091E1008150CC
S1130CD08093E1008091DD0081116FC02091E200DA
S1130CE04091E100842F90E0880F991FFC01EE0FE2
S1130CF0FF1FEE0FFF1F8E0F9F1F56E4259F9001CD
S1130D001124FC01E20FF31FEF57FC4F81E08083B5
S1130D10842F90E0880F991FFC01EE0FFF1FEE0F48
S1130D20FF1F8E0F9F1F280F391FF901EF57FC4F2C
S1130D301182809161008F5F809361000E941A0C80
S1130D40089583B3877041F48091DC00813021F4ED
S1130D5082E00E947801089583B38770853031F46E
S1130D6082E00E9478011092DC00089583B38770BA
S1130D70813031F480E00E9478011092DC00089503
S1130D8083B38770833031F480E00E94780110923D
S1130D90DC00089583B38770843031F481E00E94CD
S1130DA078011092DC00089583B38770863029F4AB
S1130DB081E00E9478011092DC0008951092DE0018
S1130DC0823039F40E9431068091DE008823D1F309
S1130DD00895833031F40E94DA018091DE00882383
S1130DE0D1F30895481304C0261302C012BA08951B
S1130DF0621718F5809162008E3421F482E00E941B
S1130E00DE060895853439F480E00E94F90182E019
S1130E100E94DE060895873539F481E00E94F901C5
S1130E2082E00E94DE060895833509F072C00E94B4
S1130E30960282E00E94DE060895261718F5809136
S1130E4062008E3431F40E94960282E00E94DE0633
S1130E500895853439F481E00E94F90182E00E940A
S1130E60DE060895873539F480E00E94F90182E0B6
S1130E700E94DE060895833509F04BC082E00E948B
S1130E80DE060895841710F5809162008E3439F4DB
S1130E9080E00E94F90182E00E94DE060895853414
S1130EA031F40E94960282E00E94DE06089587359E
S1130EB021F482E00E94DE060895833551F581E035
S1130EC00E94F90182E00E94DE060895481708F5A1
S1130ED0809162008E3439F481E00E94F90182E04D
S1130EE00E94DE060895853421F482E00E94DE0625
S1130EF00895873531F40E94960282E00E94DE064E
S1130F000895833531F480E00E94F90182E00E9463
S1130F10DE0608952F923F924F925F926F927F92D6
S1130F208F929F92AF92BF92CF92DF92EF92FF92F5
S1130F300F931F93CF93DF93CDB7DEB7C35AD10975
S1130F400FB6F894DEBF0FBECDBFCF55DF4F488339
S1130F50C15AD040CE55DF4F2883C25AD040CD5518
S1130F60DF4F0883C35AD04020E030E016E470E03D
S1130F7054E113C0DF0111975C931082DF011397D2
S1130F804C93DF0112979C939F5F3A96973091F7A9
S1130F902F5F3F4F2530310551F0422F129FF00152
S1130FA0139FF00D1124E65EFE4F972FE3CF262FFB
S1130FB030E0220F331FF901EE0FFF1FEE0FFF1F6A
S1130FC02E0F3F1F46E4849FC0011124F901E80F4E
S1130FD0F91FEB5EFE4F1482262F30E0220F331FE1
S1130FE0F901EE0FFF1FEE0FFF1F2E0F3F1FF90138
S1130FF0E80FF91FEB5EFE4F21E025831092D80025
S11310001092D700262F30E0220F331FF901EE0F84
S1131010FF1FEE0FFF1F2E0F3F1FF901E80FF91FEF
S1131020EB5EFE4F00811181228133814481558121
S113103066817781808591850E94EC020F2EF6E40B
S11310407F2EF02D44244394CBC2CE0101960E94FE
S113105026035B806C80E52CF12C670181E0C81AC3
S1131060D1080AF4D5C0862D90E0880F991FFC01A1
S1131070EE0FFF1FEE0FFF1F8E0F9F1F7C9C900132
S11310807D9C300D1124FC01E20FF31FEB5EFE4F3B
S113109085818111BDC0862D90E0880F991FFC01C8
S11310A0EE0FFF1FEE0FFF1F8E0F9F1FFC01E20FBD
S11310B0F31FEB5EFE4F8081833009F4A9C0809159
S11310C0DA008130A1F4862D90E0880F991FFC018D
S11310D0EE0FFF1FEE0FFF1F8E0F9F1FFC01E20F8D
S11310E0F31FEF57FC4F8081823009F491C0862DA5
S11310F090E0880F991FFC01EE0FFF1FEE0FFF1FFA
S11311008E0F9F1F7C9C50017D9CB00C1124FC0110
S1131110EA0DFB1DEB5EFE4F0081118122813381BC
S11311204481558166817781808591850E94EC0296
S1131130862D90E0880F991FFC01EE0FFF1FEE0F24
S1131140FF1F8E0F9F1F7E9C90017F9C300D1124EA
S1131150FC01E20FF31FEB5EFE4F24812F5F862D0F
S113116090E0880F991FFC01EE0FFF1FEE0FFF1F89
S11311708E0F9F1FFC01EA0DFB1DEB5EFE4F4582A7
S1131180862D90E0880F991FFC01EE0FFF1FEE0FD4
S1131190FF1F8E0F9F1FFC01EA0DFB1DEB5EFE4F30
S11311A084812817A8F5862D90E0880F991FFC01EB
S11311B0EE0FFF1FEE0FFF1FE80FF91FC501EA0D29
S11311C0FB1DEB5EFE4F2483262D30E0220F331FE0
S11311D0F901EE0FFF1FEE0FFF1F2E0F3F1FF90146
S11311E0EA0DFB1DEB5EFE4F56821782262D30E082
S11311F0220F331FF901EE0FFF1FEE0FFF1F2E0FFB
S11312003F1F820F931FFC01EB5EFE4F6086118629
S1131210C62CD12C56019FEFA91AB90AA7E0AA1629
S1131220B1040CF098C0F501EE0FFF1FC501880F43
S1131230991F880F991F880F991FE80FF91F7E9C2B
S1131240C0017F9C900D1124E80FF91FEB5EFE4F47
S11312508581811180C0F501EE0FFF1FC501880F44
S1131260991F880F991F880F991FE80FF91F7E9CFB
S1131270C0017F9C900D1124E80FF91FEB5EFE4F17
S11312808081833009F467C08091DA008130C9F429
S1131290F501EE0FFF1FC501880F991F880F991FD5
S11312A0880F991FE80FF91F7E9CC0017F9C900D49
S11312B01124E80FF91FEF57FC4F8081823009F4A5
S11312C04AC04501880C991CC501880F991F880FD5
S11312D0991F880F991F880E991E7E9C10017F9C70
S11312E0300C1124C401820D931D0F2EF5E18F2EB5
S11312F0F1E09F2EF02D880E991EF40100811181DA
S113130022813381448155816681778180859185ED
S11313100E94EC02F601EE0FFF1FC601880F991F11
S1131320880F991F880F991FE80FF91FE20DF31D0D
S1131330EB5EFE4F24812F5FD40115964C921597D6
S113134014968C911497281730F4F4012483568250
S11313501782608611865601B1E0AB1AB1080AF40F
S113136098C0F501EE0FFF1FC501880F991F880F64
S1131370991F880F991FE80FF91F7E9CC0017F9C5D
S1131380900D1124E80FF91FEB5EFE4F858181114A
S113139080C0F501EE0FFF1FC501880F991F880F4C
S11313A0991F880F991FE80FF91F7E9CC0017F9C2D
S11313B0900D1124E80FF91FEB5EFE4F80818330FE
S11313C009F467C08091DA008130C9F4F501EE0FA9
S11313D0FF1FC501880F991F880F991F880F991F38
S11313E0E80FF91F7E9CC0017F9C900D1124E80F2B
S11313F0F91FEF57FC4F8081823009F44AC0450140
S1131400880C991CC501880F991F880F991F880F94
S1131410991F880E991E7E9C10017F9C300C11240C
S1131420C401820D931D0F2EF5E18F2EF1E09F2E46
S1131430F02D880E991EF4010081118122813381DF
S11314404481558166817781808591850E94EC0273
S1131450F601EE0FFF1FC601880F991F880F991F11
S1131460880F991FE80FF91FE20DF31DEB5EFE4F85
S113147024812F5FD40115964C92159714968C9164
S11314801497281730F4F401248356821782608657
S113149011865701BFEFAB1ABB0AE5E0AE16B104E3
S11314A00CF09EC0F601EE0FFF1FC601880F991FB6
S11314B0880F991F880F991FE80FF91F7A9CC001A4
S11314C07B9C900D1124E80FF91FEB5EFE4F858184
S11314D0811186C0F601EE0FFF1FC601880F991F08
S11314E0880F991F880F991FE80FF91F7A9CC00174
S11314F07B9C900D1124E80FF91FEB5EFE4F808159
S1131500833009F46DC08091DA008130C9F4F601AA
S1131510EE0FFF1FC601880F991F880F991F880FB0
S1131520991FE80FF91F7A9CC0017B9C900D112430
S1131530E80FF91FEF57FC4F8081823009F450C047
S11315401601220C331CC601880F991F880F991F9E
S1131550880F991F280E391E7A9C40017B9C900CA1
S11315601124C101880D991D0F2EF5E18F2EF1E094
S11315709F2EF02D880E991ED4010C9111961C916A
S1131580119712962C91129713963C9113971496D7
S11315904C91149715965C91159716966C91169725
S11315A017967C91179718968C91189719969C9179
S11315B00E94EC027E9CF0017F9CF00D1124E20D50
S11315C0F31DEB5EFE4F24812F5FF401458284817D
S11315D0281730F4F401248356821782608611861A
S11315E08091D700823209F030CDCF55DF4FF8819A
S11315F0C15AD040FD87CE55DF4F2881C25AD04012
S11316002E8712BA8F2F805D0E947000CE55DF4F57
S11316108881C25AD040805D0E9470008D85805DB3
S11316200E9470008E85805D0E947000CE55DF4F51
S11316308881C25AD04090E0880F991FFC01EE0FB8
S1131640FF1FEE0FFF1F8E0F9F1FFC01CF55DF4FB3
S11316504881C15AD04036E4439FE00DF11D112466
S1131660EB5EFE4F1481212F2150233108F0BDC0C1
S1131670112309F4C4C0FE0177966E0188E1C80EF7
S1131680D11C822F90E0880F991F9C01220F331FD9
S1131690220F331F820F931FA1E2B0E0AC0FBD1FD6
S11316A08A0F9B1FCE55DF4FF880C25AD04006E404
S11316B02F2D30E0220F331FB901660F771F660FFD
S11316C0771F260F371F049FA0011124240F351FF5
S11316D02B5E3E4FD90116962C9120832F2D30E09E
S11316E0220F331FB901660F771F660F771F260F6E
S11316F0371F420F531F4B5E5E4FDA011896FC9062
S1131700D601FC9240813A96BAE0CB0ED11CE81780
S1131710F90771F66CC0012F0E94E00061E082E0DD
S11317200E94030188E20E947000E02EF12C670100
S1131730CC0CDD1CC701880F991F880F991F880FD7
S1131740991FC80ED91EE1E0F0E0EC0FFD1FCE0E8C
S1131750DF1ED6011C96BC908B2D805D0E9470000C
S11317608CE20E947000F601D5848D2D805D0E946C
S1131770700089E20E9470008CEC90E00E94EA0004
S113178082ED90E00E94EA00F1E0EF1AF108C7014F
S1131790880F991FEE0CFF1CEE0CFF1CEE0CFF1CB7
S11317A0E80EF91E21E030E02C0F3D1FE20EF31E7F
S11317B0D7011C96CC908C2D805D0E9470008CE229
S11317C00E947000F701F5848F2D805D0E947000E7
S11317D089E20E9470002F2D4C2D6D2D8B2D0E94BF
S11317E0F206015009F098CF0AC014E108C0CD55A3
S11317F0DF4FF881C35AD040F13009F48CCF812FE8
S1131800CD55DF4F0FB6F894DEBF0FBECDBFDF91CD
S1131810CF911F910F91FF90EF90DF90CF90BF90E9
S1131820AF909F908F907F906F905F904F903F907C
S11318302F9008958F929F92AF92BF92CF92DF9292
S1131840EF92FF920F931F93CF93DF93B090E20038
S1131850C090E1006B2D70E0FB013197E530F1059C
S1131860E8F58C2D90E0880F991FDC01AA0FBB1FAF
S1131870AA0FBB1F8A0F9B1F46E44E9F90014F9FE8
S1131880300D1124DC01A20FB31FAF57BC4F8C9154
S1131890811124C08C2D90E0880F991FDC01AA0FC0
S11318A0BB1FAA0FBB1F8A0F9B1FDC01A20FB31F14
S11318B0AF57BC4F8C2D90E0880F991FEC01CC0FD3
S11318C0DD1FCC0FDD1F8C0F9D1F280F391FE90171
S11318D0CF57DC4F89818F5F11968C938C2D90E0CC
S11318E09C012150310927303105A0F5D901AA0FF7
S11318F0BB1FA901440F551F440F551F440F551F0B
S1131900A40FB51FC6E4C69FA001C79F500D1124A4
S1131910A40FB51FAF57BC4F4C9141111BC0D90147
S1131920AA0FBB1FA901440F551F440F551F440F95
S1131930551FA40FB51FC69FA001C79F500D1124AA
S1131940A40FB51FAF57BC4F11964C9111974F5F21
S113195011964C9343E04B15B8F1AB014F5F5F4FC9
S1131960EC01CC0FDD1FDC01AA0FBB1FAA0FBB1FAC
S1131970AA0FBB1FAC0FBD1F16E4149FE001159FF7
S1131980D00D1124AC0FBD1FAF57BC4FAC91A111AA
S11319901BC0EC01CC0FDD1FDC01AA0FBB1FAA0F7B
S11319A0BB1FAA0FBB1FAC0FBD1F149FE001159FE7
S11319B0D00D1124AC0FBD1FAF57BC4F11964C91E5
S11319C011974F5F11964C93C5E0CC1588F1AC018B
S11319D04F5F5F4FEA01CC0FDD1FDA01AA0FBB1F77
S11319E0AA0FBB1FAA0FBB1FAC0FBD1F16E4169F87
S11319F0E001179FD00D1124AC0FBD1FAF57BC4F92
S1131A00AC91A11115C0DA01AA0FBB1F440F551FD9
S1131A10440F551F440F551FA40FB51FAC0FBD1F16
S1131A20AF57BC4F11964C9111974F5F11964C9341
S1131A304B01DFEF8D1A9D0A45E084169104D4F51D
S1131A40DC01AA0FBB1FAC01440F551F440F551FE7
S1131A50440F551FA40FB51F16E4189DA001199D2E
S1131A60500D1124A40FB51FAF57BC4F11964C91C4
S1131A70442319F1DC01AA0FBB1FAC01440F551F0D
S1131A80440F551F440F551FA40FB51F189DA001E7
S1131A90199D500D1124A40FB51FAF57BC4F4C9185
S1131AA041110EC0DB2CD39441E04093D500FF24B8
S1131AB0F39408C0DB2CF12C05C0DB2CF12C02C004
S1131AC0DB2CF12C3323E4F1D901AA0FBB1FA901AC
S1131AD0440F551F440F551F440F551FA40FB51F26
S1131AE016E4169FA001179F500D1124A40FB51FD3
S1131AF0AF57BC4F11964C91442321F1D901AA0F41
S1131B00BB1FA901440F551F440F551F440F551FF8
S1131B10A40FB51F169FA001179F500D1124A40FE9
S1131B20B51FAF57BC4F4C9141110EC0AC2CAA94B9
S1131B3041E04093D500DB2C6894FF24F1F805C004
S1131B40AC2C03C0AC2C01C0AC2CFF23E4F1DC01B1
S1131B50AA0FBB1FAC01440F551F440F551F440F60
S1131B60551FA40FB51F16E41E9FA0011F9F500D03
S1131B701124A40FB51FAF57BC4F11964C914423A9
S1131B8011F1DC01AA0FBB1FAC01440F551F440F18
S1131B90551F440F551FA40FB51F1E9FA0011F9F63
S1131BA0500D1124A40FB51FAF57BC4F4C914111D8
S1131BB00AC0DB2CDA9441E04093D500AC2C0F2E04
S1131BC0F3E0FF2EF02DDC011196A730B10534F5BA
S1131BD08D01000F111FAD01440F551F440F551FF8
S1131BE0440F551F040F151F0F2EF6E4EF2EF02D92
S1131BF0E69EA001E79E500D1124400F511F4F5740
S1131C005C4FEA014981442349F04881411106C0EF
S1131C10AC2CA3941092D500DB2C37C1F110A9C0D1
S1131C204091D5004F5F4093D500FF2304F18C0110
S1131C30000F111FAC01440F551F440F551F440FD3
S1131C40551F040F151F0F2EF6E4FF2EF02DFE9ED8
S1131C50A001FF9E500D1124400F511F4F575C4FA0
S1131C60EA014881413019F4DB2CDA94AC2CA7301A
S1131C70B10504F58D01000F111FAD01440F551F6F
S1131C80440F551F440F551F040F151F0F2EF6E464
S1131C90FF2EF02DF69EA001F79E500D1124400F4B
S1131CA0511F4F575C4FEA014881413019F4AC2C65
S1131CB0A394DB2C332304F18901000F111FA90124
S1131CC0440F551F440F551F440F551F040F151F74
S1131CD00F2EF6E4FF2EF02DF69EA001F79E500D78
S1131CE01124400F511F4F575C4FEA014881413086
S1131CF019F4AC2CAA94DB2CD5E08D16910404F5D0
S1131D008C01000F111FAC01440F551F440F551FC8
S1131D10440F551F040F151F0F2EF6E4FF2EF02D50
S1131D20F89CA001F99C500D1124400F511F4F57EE
S1131D305C4FEA014881413019F4DB2CD394AC2C7C
S1131D407C01EE0CFF1C8C01000F111F000F111FF2
S1131D50000F111FE00EF11E46E4469F8001479FCD
S1131D60100D11240E0D1F1D0F571C4F42E0E801EA
S1131D7048834091D50041504093D500453008F444
S1131D8084C04091DD00411180C045E04093D500FE
S1131D90D5E08D16910404F58C01000F111FAC01E0
S1131DA0440F551F440F551F440F551F040F151F93
S1131DB00F2EF6E4FF2EF02DF89CA001F99C500D97
S1131DC01124400F511FEA01CF57DC4F48814130A5
S1131DD019F4DB2CD394AC2C3323DCF0E901CC0FC5
S1131DE0DD1F220F331F220F331F220F331FC20F99
S1131DF0D31F26E4269FA001279F500D1124C40F52
S1131E00D51FCF57DC4F2881213019F4AC2CAA946C
S1131E10DB2CFF23E4F09C01220F331F880F991F52
S1131E20880F991F880F991F820F931F46E44E9FB6
S1131E3090014F9F300D1124FC01E20FF31FEF5767
S1131E40FC4F8081813019F4DB2CDA94AC2CA73060
S1131E50B105DCF4CD01880F991FAA0FBB1FAA0F8F
S1131E60BB1FAA0FBB1FA80FB91F26E4269FC001E2
S1131E70279F900D1124A80FB91FAF57BC4F8C9109
S1131E80813019F4AC2CA394DB2C0E94E00061E0B7
S1131E9082E00E94030188E20E9470008091E200C7
S1131EA0805D0E9470008CE20E9470008091E100CD
S1131EB0805D0E94700089E20E9470008CEC90E0CA
S1131EC00E94EA0082ED90E00E94EA008D2D805D80
S1131ED00E9470008CE20E9470008A2D805D0E9436
S1131EE0700089E20E94700067E081E00E940301B3
S1131EF0809161000E9411018091DD00811108C070
S1131F002A2D4D2D6091E1008091E2000E94F2069D
S1131F10DF91CF911F910F91FF90EF90DF90CF90C1
S1131F20BF90AF909F908F9008950F93CF93DF93BE
S1131F300E94E00012BAC091D400C33021F0C53031
S1131F4019F412BAFFCFC4E02C2F30E0220F331F54
S1131F50C901880F991F880F991F280F391FD901AC
S1131F60AD51BF4F2C2F30E0220F331FC901880F12
S1131F70991F880F991F280F391FF901ED51FF4F41
S1131F8001E013962C9142816091E1008091E2007E
S1131F900E948A072C2F30E0220F331FC901880FBB
S1131FA0991F880F991F280F391FF901ED51FF4F11
S1131FB02C2F30E0220F331FC901880F991F880F7F
S1131FC0991F280F391FD901AD51BF4F12964C915B
S1131FD0238130E0220F331FC901880F991F880F16
S1131FE0991F280F391FF90186E4489FE00DF11D60
S1131FF01124EF57FC4FD1E0D08362E08C2F0E9474
S11320004203C093E0008091D4008F5F8093D4009A
S113201082E00E94A6019FEF23E086EA91502040CF
S11320208040E1F700C0000082E00E949C019FEF25
S113203025EA8EE0915020408040E1F700C0000086
S113204012BAD093DA0082E00E94DE068091620028
S11320508E3431F48091E10081508093E10017C007
S1132060853431F48091E2008F5F8093E2000FC0E9
S1132070873531F48091E20081508093E20007C0FB
S1132080833529F48091E1008F5F8093E100DF9133
S1132090CF910F9108950F932091E000822F90E04B
S11320A0880F991FDC01AA0FBB1FAA0FBB1F8A0F41
S11320B09B1FDC01AD58BD4F822F90E0880F991F04
S11320C0FC01EE0FFF1FEE0FFF1F8E0F9F1FFC0181
S11320D0ED58FD4F01E013962C9142816091E1008F
S11320E08091E2000E948A078091E000282F30E06E
S11320F0220F331FF901EE0FFF1FEE0FFF1F2E0FEC
S11321003F1FF901ED58FD4F282F30E0220F331FF8
S1132110D901AA0FBB1FAA0FBB1F2A0F3B1FD9014E
S1132120AD58BD4F12969C91238130E0220F331F8E
S1132130F901EE0FFF1FEE0FFF1F2E0F3F1FF901D6
S113214046E4949FE00DF11D1124EB5EFE4F93E0F5
S1132150908363E00E94420312BA83E00E947801F4
S11321608FEF98EF25E1815090402040E1F700C0C7
S1132170000083E00E949C014FEF87E893E1415007
S113218080409040E1F700C0000083E00E94A60177
S11321902FEF4BE782E9215040408040E1F700C037
S11321A0000012BA1092DA000E9496040F9108956A
S10721B0F894FFCFCD
S11321B405014E496E697469616C697A696E672EAA
S11321C42E2E00506C6561736520576169742E2E40
S11321D42E00424F542040205374617274204E6F79
S11321E4646500424C4F434B2053454152434820BD
S11321F44D4F44002020534F4C5645204D4F4445E9
S1132204005441534B20434F4D504C4554454421B5
S11322142100424C4F434B0020402000202D2D3EF2
S1072224200028006A
S9030000FC
