S01700005374657020557020526F756E6420312E7372656313
S11300000C942A000C9447000C9447000C9447006D
S11300100C9447000C9447000C9447000C94470040
S11300200C9447000C9447000C9447000C94470030
S11300300C9447000C9447000C9447000C94470020
S11300400C9447000C9447000C9447000C94470010
S11300500C94470011241FBECFE5D8E0DEBFCDBF0E
S113006010E0A0E6B0E0EEE3F1E202C005900D92EC
S1130070A63EB107D9F724E0A6EEB0E001C01D9278
S1130080A338B207E1F70E9496030C949D100C94D8
S113009000009BB3282F207F9F70922B9BBBDA9884
S11300A0DB9AEFEAF4E03197F1F700C00000DB9847
S11300B0EFECF7E03197F1F700C000002BB3F0E16B
S11300C08F9FC0011124922F9F70892B8BBBDB9AC9
S11300D08FEA94E00197F1F700C00000DB980895DF
S11300E09BB3282F207F9F70922B9BBBDA9ADB9ABD
S11300F0EFEAF4E03197F1F700C00000DB98EFEC91
S1130100F7E03197F1F700C000002BB3F0E18F9FC7
S1130110C0011124922F9F70892B8BBBDB9A8FEA2D
S113012094E00197F1F700C00000DB9808958CEF8C
S11301308ABBDB982FEF83EC99E0215080409040FC
S1130140E1F700C0000083E30E9449002FEF89EF2C
S113015090E0215080409040E1F700C0000082E32D
S11301600E9449002FEF89EF90E021508040904099
S1130170E1F700C0000088E20E9449002FEF89EFF8
S113018090E0215080409040E1F700C000008CE0F6
S11301900E9449002FEF89EF90E021508040904069
S11301A0E1F700C0000081E00E9449002FEF89EFD1
S11301B090E0215080409040E1F700C00000089595
S11301C081E00E9449008FE39FE10197F1F700C0AD
S11301D0000008951F93CF93DF93EC018881882357
S11301E071F010E00E9470001F5F85E38A95F1F7BB
S11301F00000FE01E10FF11D80818111F3CFDF9139
S1130200CF911F910895813029F4862F81580E943F
S113021049000895823021F4862F81540E944900B8
S11302200895CF93DF93C82FDDEC8D9FD12D11243A
S1130230D695D695D6958D2F805D0E947000DD0FE2
S11302408D2F880F880FD80F8C2F8D1B805D0E94F7
S11302507000DF91CF91089514BA8FEF85BB81BBF5
S113026012BA089580E090E046E430E012C0DF0165
S113027011978C932083DF0113971C92DF0112974F
S11302801C922F5F3A96273091F70196853091059D
S113029049F0489FF001499FF00D1124E85DFC4F9F
S11302A0232FE5CF089520916000222389F030E0C8
S11302B0E4E7F2E080E090E052E0DF0111975C9324
S11302C0482F4E5F408301963A9682179307A8F30E
S11302D0089583E087BB81E088BB2FEF87E893E133
S11302E0215080409040E1F700C0000018BA089502
S11302F092B312BA823081F028F4882349F0813015
S1130300D1F408C0843081F058F08530A1F410C0D5
S1130310979A0895969A089582B3806C82BB089543
S113032082B3806382BB089582B3806982BB0895DF
S113033082B3806682BB089592B312BA823011F4FC
S1130340909A0895833009F4919A089592B312BA59
S1130350823011F4929A0895833009F4939A08959F
S113036012BA809162008E3431F48091F3008F5F71
S11303708093F30017C0853431F48091F4008150E8
S11303808093F4000FC0873531F48091F4008F5FBF
S11303908093F40007C0833529F48091F3008150E1
S11303A08093F3008091EF008F5F8093EF000E94B1
S11303B06901089583B3877069F48091ED00811118
S11303C009C081E08093ED008091EF008F5F8093FE
S11303D0EF00089583B3877041F48091ED0081307C
S11303E021F483E00E947801089583E00E9478015B
S11303F0089512BA2FEF31EE94E02150304090402E
S1130400E1F700C00000811148C082E00E94780139
S11304102FEF32E587E0215030408040E1F700C003
S1130420000084E00E9478019FEF29E638E19150B2
S113043020403040E1F700C0000083B3877087306C
S113044019F484E00E9478018FE799EA23E081504F
S113045090402040E1F700C0000012BA8091620091
S11304608E3459F020F4853409F05FC00AC0833516
S113047081F0873509F059C008C087E58093620090
S113048008958EE480936200089583E5809362006A
S1130490089585E4809362000895813009F045C091
S11304A082E00E9478013FEF82E597E0315080407E
S11304B09040E1F700C0000085E00E9478012FEF32
S11304C039E688E1215030408040E1F700C0000067
S11304D083B38770873019F485E00E9478019FE721
S11304E029EA33E0915020403040E1F700C0000099
S11304F012BA809162008E3449F018F48534A9F45C
S113050009C0833579F0873581F408C085E4809388
S11305106200089583E58093620008958EE48093D9
S11305206200089587E580936200089512BA2FEF60
S113053081EE94E0215080409040E1F700C000003B
S113054082E00E9478012FEF82E597E021508040FD
S11305509040E1F700C0000084E00E9478012FEF92
S113056089ED9FE2215080409040E1F700C00000F7
S113057012BA83B38770873019F484E00E9478013B
S11305802FEF81EE94E0215080409040E1F700C0CD
S1130590000012BA809162008E3449F018F4853458
S11305A0A9F409C0833579F0873581F408C083E55F
S11305B0809362000BC087E58093620007C085E4E6
S11305C08093620003C08EE4809362008091E60011
S11305D08F5F8093E60008950F931F93CF93DF936B
S11305E0CDB7DEB72A970FB6F894DEBF0FBECDBFE6
S11305F009831A832B833C834D835E836F837887BF
S113060089879A872091E900A22FB0E0AA0FBB1F27
S1130610CD01880F991F880F991FA80FB91FA157E3
S1130620BD4F8AE0FE01319601900D928A95E1F763
S11306302F5F2093E9002A960FB6F894DEBF0FBE11
S1130640CDBFDF91CF911F910F9108952091E800C4
S11306502F5F2093E80030E021503109F901EE0FBB
S1130660FF1F220F331F220F331F220F331FE20FEE
S1130670F31FE157FD4F2AE0DC0101900D922A950A
S1130680E1F70895623041F52091E700A82FB0E02A
S1130690AA0FBB1FCD01880F991F880F991FA80FA0
S11306A0B91FAB50BF4F822F90E00197FC01EE0FB2
S11306B0FF1F880F991F880F991F880F991FE80F34
S11306C0F91FEB50FF4F8AE001900D928A95E1F7F4
S11306D021502093E7000895633039F5209160009C
S11306E0A82FB0E0AA0FBB1FCD01880F991F880F58
S11306F0991FA80FB91FAF58BD4F822F90E00197E3
S1130700FC01EE0FFF1F880F991F880F991F880F98
S1130710991FE80FF91FEF58FD4F8AE001900D92E1
S11307208A95E1F721502093600008958091EA00B2
S1130730811160C00E9497000E942C010E94320126
S11307401FBC1EBC8FEF90E09BBD8ABD99BD88BDC8
S113075061E081E00E94030183E690E00E94EA00E8
S113076061E082E00E94030183E790E00E94EA00D6
S11307702FEF83ED90E3215080409040E1F700C0DB
S1130780000012E0C5E2D3E001E093B39770E9F70B
S11307900E9469010E94E00082E890E00E94EA0061
S11307A02FEF83ED90E3215080409040E1F700C0AB
S11307B000001093EE00812F0E9484061092EE0038
S11307C01092F4001092F30008830E94E00083E981
S11307D090E00E94EA00812F0E9478012FEF83ECC1
S11307E099E0215080409040E1F700C000000E9451
S11307F0760BCBCF0E94E00084EA90E00E94EA00EE
S11308002FEF83ED90E3215080409040E1F700C04A
S1130810000081E08093EE000E9453010E94F10EDB
S11308200E940C100E94F10E0E940C100E94F10E06
S11308300E940C1001E020E040E06091F300809100
S1130840F4000E9430070E94970012BA0E946901C6
S11308502FEF81EE94E0215080409040E1F700C0FA
S113086000000E9469012FEF81EE94E02150804046
S11308709040E1F700C000000E9469010E94E0007E
S113088081EB90E00E94EA00FFCFCF93DF9383E0F7
S11308900E9478012FEF88EF95E12150804090402D
S11308A0E1F700C0000012BA81EA8FBD81E08EBD7D
S11308B083B3877061F0C4EBD0E0DBBDCABDD9BDA2
S11308C0C8BD83E00E94780183B38770B1F712BA80
S11308D082E00E9478012FEF83EC99E02150804060
S11308E09040E1F700C0000012BA1FBC1EBC8FEF9D
S11308F090E09BBD8ABD99BD88BD809162008E3415
S113090031F48091F30081508093F30017C0853453
S113091031F48091F4008F5F8093F4000FC0873529
S113092031F48091F40081508093F40007C0833542
S113093029F48091F3008F5F8093F30081E080932A
S1130940ED008091EE00811106C08091E7008330B4
S113095010F40E94760B8091E7008330A9F5809112
S1130960EE00811131C081E08093EA008093EE00B3
S11309700E94E00082EC90E00E94EA0062E082E0E3
S11309800E94030180ED90E00E94EA0088E20E9448
S113099070008091F400805D0E9470008CE20E94DF
S11309A070008091F300805D0E94700089E20E94D3
S11309B070002FEF87EA91E6215080409040E1F7E4
S11309C000C000000E949603DF91CF91089581E05A
S11309D08093EC008091EE008111A7C09091F1000A
S11309E08091F400292F30E0220F331FF901EE0F1C
S11309F0FF1FEE0FFF1F2E0F3F1FF901EB50FF4F9C
S1130A0082834091F300292F30E0220F331FF90134
S1130A10EE0FFF1FEE0FFF1F2E0F3F1FF901EB50CC
S1130A20FF4F4383242F30E0220F331FF901EE0FD1
S1130A30FF1FEE0FFF1F2E0F3F1F56E4859FC001BF
S1130A401124F901E80FF91FEB5DFC4F52E05083CC
S1130A50242F30E0220F331FF901EE0FFF1FEE0F9A
S1130A60FF1F2E0F3F1FF901E80FF91FED5EFE4F28
S1130A705083242F30E0220F331FF901EE0FFF1FA4
S1130A80EE0FFF1F2E0F3F1F820F931FFC01EB5D24
S1130A90FC4F8FEF81830E94E00084ED90E00E9480
S1130AA0EA008091F1008F5C0E9470008AED90E072
S1130AB00E94EA0088E20E9470008091F10090E0B8
S1130AC0880F991FFC01EE0FFF1FEE0FFF1F8E0F03
S1130AD09F1FFC01EB50FF4F8281805D0E947000DC
S1130AE08CE20E9470008091F10090E0880F991FC1
S1130AF0FC01EE0FFF1FEE0FFF1F8E0F9F1FFC0167
S1130B00EB50FF4F8381805D0E94700089E20E9458
S1130B107000809161008F5F809361008091E70095
S1130B208F5F8093E7000E944504089583B3887F14
S1130B30803F81F48091EC0081110CC08091EB0026
S1130B40811108C00E94B0011092F1000E94E704D4
S1130B5081E0089583B3887F803C89F48091EC0020
S1130B6081110DC08091EB00811109C00E94B00178
S1130B7081E08093F1000E94E70481E0089583B34B
S1130B80887F89F48091EC0081110DC08091EB0085
S1130B90811109C00E94B00182E08093F1000E949B
S1130BA0E70481E008951092EC0080E008950E942B
S1130BB09605813021F412BA0E946901089583B325
S1130BC0877009F064C08091ED00811160C081E0FC
S1130BD08093ED008091EF008F5F8093EF00809110
S1130BE062008E3431F48091F3008F5F8093F300C0
S1130BF017C0853431F48091F40081508093F4005F
S1130C000FC0873531F48091F4008F5F8093F40036
S1130C1007C0833529F48091F30081508093F30059
S1130C208091EE0081116FC02091F4004091F30097
S1130C30842F90E0880F991FFC01EE0FFF1FEE0F29
S1130C40FF1F8E0F9F1F56E4259F90011124FC0166
S1130C50E20FF31FEB5DFC4F81E08083842F90E073
S1130C60880F991FFC01EE0FFF1FEE0FFF1F8E0F61
S1130C709F1F280F391FF901EB5DFC4F11828091F2
S1130C8061008F5F809361000E94760B089583B3A7
S1130C90877041F48091ED00813021F482E00E945C
S1130CA07801089583B38770853031F482E00E941F
S1130CB078011092ED00089583B38770813031F488
S1130CC080E00E9478011092ED00089583B387704C
S1130CD0833031F480E00E9478011092ED00089591
S1130CE083B38770843031F481E00E9478011092DC
S1130CF0ED00089583B38770863029F481E00E9463
S1130D0078011092ED0008951092EF00823039F4CA
S1130D100E94D7058091EF008823D1F30895833092
S1130D2031F40E94DA018091EF008823D1F3089511
S1130D30481304C0261302C012BA0895621718F5A6
S1130D40809162008E3421F482E00E94840608952A
S1130D50853439F480E00E94F90182E00E9484061F
S1130D600895873539F481E00E94F90182E00E94F8
S1130D7084060895833509F072C00E94960282E0C9
S1130D800E9484060895261718F5809162008E3417
S1130D9031F40E94960282E00E948406089585340C
S1130DA039F481E00E94F90182E00E9484060895EA
S1130DB0873539F480E00E94F90182E00E948406BC
S1130DC00895833509F04BC082E00E94840608959B
S1130DD0841710F5809162008E3439F480E00E940B
S1130DE0F90182E00E9484060895853431F40E945A
S1130DF0960282E00E9484060895873521F482E0F9
S1130E000E9484060895833551F581E00E94F9011A
S1130E1082E00E9484060895481708F580916200D4
S1130E208E3439F481E00E94F90182E00E94840644
S1130E300895853421F482E00E948406089587355C
S1130E4031F40E94960282E00E948406089583355C
S1130E5031F480E00E94F90182E00E948406089542
S1130E602F923F924F925F926F927F928F929F92B6
S1130E70AF92BF92CF92DF92EF92FF920F931F93A4
S1130E80CF93DF93CDB7DEB7C157D1090FB6F8942E
S1130E90DEBF0FBECDBFE0964FAFE097E1962FAF18
S1130EA0E197E2960FAFE29720E030E016E470E0BD
S1130EB054E113C0DF0111975C931082DF01139793
S1130EC04C93DF0112979C939F5F3A96973091F76A
S1130ED02F5F3F4F2530310551F0422F129FF00113
S1130EE0139FF00D1124E85EFE4F972FE3CF262FBA
S1130EF030E0220F331FF901EE0FFF1FEE0FFF1F2B
S1130F002E0F3F1F46E4849FC0011124F901E80F0E
S1130F10F91FED5EFE4F1482262F30E0220F331F9F
S1130F20F901EE0FFF1FEE0FFF1F2E0F3F1FF901F8
S1130F30E80FF91FED5EFE4F21E025831092E900D2
S1130F401092E800262F30E0220F331FF901EE0F34
S1130F50FF1FEE0FFF1F2E0F3F1FF901E80FF91FB0
S1130F60ED5EFE4F008111812281338144815581E0
S1130F7066817781808591850E94EC020F2EF6E4CC
S1130F807F2EF02D44244394ADC2CE0101960E94DD
S1130F9026036B805C80E52CF12C67018FEFC81A67
S1130FA0D80A97E0C916D1040CF0A4C0F601EE0FDC
S1130FB0FF1FC601880F991F880F991F880F991F5B
S1130FC0E80FF91F862C912C769CE00DF11D11245D
S1130FD0ED5EFE4F858181118DC0F601EE0FFF1F7E
S1130FE0C601880F991F880F991F880F991FE80F52
S1130FF0F91F789CC001799C900D1124E80FF91F0A
S1131000ED5EFE4F8081833009F474C08091EB0063
S11310108130C9F4F601EE0FFF1FC601880F991F36
S1131020880F991F880F991FE80FF91F789CC0013A
S1131030799C900D1124E80FF91FEB5DFC4F808122
S1131040823009F457C05601AA0CBB1CC601880F94
S1131050991F880F991F880F991FA80EB91E789C95
S11310601001799C300C1124C501820D931D0F2EA3
S1131070F3E1AF2EF1E0BF2EF02DA80EB91ED5017D
S11310800C9111961C91119712962C91129713960C
S11310903C91139714964C91149715965C9115975F
S11310A016966C91169717967C91179718968C91B3
S11310B0189719969C910E94EC02F701EE0FFF1FFE
S11310C0C701880F991F880F991F880F991FE80F70
S11310D0F91FE20DF31DED5EFE4F24812F5FF50134
S11310E045828481281730F4F501248366821782AF
S11310F050861186A62CB12C6501F1E0CF1AD108D7
S11311000AF49EC0F701EE0FFF1FC701880F991F55
S1131110880F991F880F991FE80FF91F7C9CC00145
S11311207D9C900D1124E80FF91FED5EFE4F858123
S1131130811186C0F701EE0FFF1FC701880F991FA9
S1131140880F991F880F991FE80FF91F7C9CC00115
S11311507D9C900D1124E80FF91FED5EFE4F8081F8
S1131160833009F46DC08091EB008130C9F4F7013C
S1131170EE0FFF1FC701880F991F880F991F880F53
S1131180991FE80FF91F7C9CC0017D9C900D1124D0
S1131190E80FF91FEB5DFC4F8081823009F450C0E9
S11311A01701220C331CC701880F991F880F991F40
S11311B0880F991F280E391E7C9C40017D9C900C41
S11311C01124C101880D991D0F2EF3E18F2EF1E03A
S11311D09F2EF02D880E991ED4010C9111961C910E
S11311E0119712962C91129713963C91139714967B
S11311F04C91149715965C91159716966C911697C9
S113120017967C91179718968C91189719969C911C
S11312100E94EC027A9CF0017B9CF00D1124E20DFB
S1131220F31DED5EFE4F24812F5FF401458284811E
S1131230281730F4F40124836682178250861186BD
S11312406701F1E0CF1AD1080AF4A5C0F601EE0F48
S1131250FF1FC601880F991F880F991F880F991FB8
S1131260E80FF91F7A9CC0017B9C900D1124E80FB4
S1131270F91FED5EFE4F858181118DC0F601EE0FE1
S1131280FF1FC601880F991F880F991F880F991F88
S1131290E80FF91F7A9CC0017B9C900D1124E80F84
S11312A0F91FED5EFE4F8081833009F474C0809194
S11312B0EB008130C9F4F601EE0FFF1FC601880F61
S11312C0991F880F991F880F991FE80FF91F7A9C9F
S11312D0C0017B9C900D1124E80FF91FEB5DFC4FBE
S11312E08081823009F457C04601880C991CC601DC
S11312F0880F991F880F991F880F991F880E991EB0
S11313007A9C10017B9C300C1124C401820D931D26
S11313100F2EF3E18F2EF1E09F2EF02D880E991EF3
S1131320D4010C9111961C91119712962C9112973D
S113133013963C91139714964C91149715965C91BF
S1131340159716966C91169717967C911797189681
S11313508C91189719969C910E94EC02F701EE0F5C
S1131360FF1FC701880F991F880F991F880F991FA6
S1131370E80FF91FE20DF31DED5EFE4F24812F5F90
S1131380F40145828481281730F4F40124836682B1
S11313901782508611866501FFEFCF1ADF0A25E018
S11313A0C216D1040CF09EC0F701EE0FFF1FC70157
S11313B0880F991F880F991F880F991FE80FF91F2D
S11313C07C9CC0017D9C900D1124E80FF91FED5EFB
S11313D0FE4F8581811186C0F701EE0FFF1FC70103
S11313E0880F991F880F991F880F991FE80FF91FFD
S11313F07C9CC0017D9C900D1124E80FF91FED5ECB
S1131400FE4F8081833009F46DC08091EB00813000
S1131410C9F4F701EE0FFF1FC701880F991F880F4A
S1131420991F880F991FE80FF91F7C9CC0017D9CB0
S1131430900D1124E80FF91FEB5DFC4F8081823081
S113144009F450C01701220C331CC701880F991FDF
S1131450880F991F880F991F280E391E7C9C400104
S11314607D9C900C1124C101880D991D0F2EF3E170
S11314708F2EF1E09F2EF02D880E991ED4010C9131
S113148011961C91119712962C91129713963C91D8
S1131490139714964C91149715965C91159716967C
S11314A06C91169717967C91179718968C911897AC
S11314B019969C910E94EC027A9CF0017B9CF00DA1
S11314C01124E20DF31DED5EFE4F24812F5FF40124
S11314D045828481281730F4F401248366821782BC
S11314E0508611868091E800813209F04ECDE09655
S11314F0FFADE097FD87E1962FADE1972E87822F10
S113150090E0880F991FFC01EE0FFF1FEE0FFF1FE5
S11315108E0F9F1FFC01E0964FADE09736E4439F8A
S1131520E00DF11D1124ED5EFE4F1481212F215099
S1131530233108F0B8C0112309F4BDC0FE01779629
S11315406E0188E1C80ED11C822F90E0880F991F8C
S11315509C01220F331F220F331F820F931FA1E21E
S1131560B0E0AC0FBD1F8A0F9B1FE196FFACE19763
S113157006E42F2D30E0220F331FB901660F771FC9
S1131580660F771F260F371F049FA0011124240F15
S1131590351F2D5E3E4FD90116962C9120832F2D99
S11315A030E0220F331FB901660F771F660F771FD4
S11315B0260F371F420F531F4D5E5E4FDA011896F8
S11315C0FC90D601FC9240813A96BAE0CB0ED11C35
S11315D0E817F90771F669C0012F61E082E00E9403
S11315E0030188E20E947000E02EF12C6701CC0C0C
S11315F0DD1CC701880F991F880F991F880F991F39
S1131600C80ED91EE1E0F0E0EC0FFD1FCE0EDF1E88
S1131610D6011C96BC908B2D805D0E9470008CE2DC
S11316200E947000F601D5848D2D805D0E947000AB
S113163089E20E9470008EED90E00E94EA0088E248
S11316400E947000F1E0EF1AF108C701880F991F9A
S1131650EE0CFF1CEE0CFF1CEE0CFF1CE80EF91E3A
S113166021E030E02C0F3D1FE20EF31ED7011C9643
S1131670CC908C2D805D0E9470008CE20E947000E2
S1131680F701F5848F2D805D0E94700089E20E942D
S113169070002F2D4C2D6D2D8B2D0E94980601501E
S11316A009F09BCF08C014E106C0E296FFADE297B3
S11316B0F13009F491CF812FCF58DF4F0FB6F89452
S11316C0DEBF0FBECDBFDF91CF911F910F91FF9071
S11316D0EF90DF90CF90BF90AF909F908F907F90CE
S11316E06F905F904F903F902F9008958F929F92AC
S11316F0AF92BF92CF92DF92EF92FF920F931F931C
S1131700CF93DF93B090F400C090F3006B2D70E0A2
S1131710FB013197E530F105E8F58C2D90E0880F59
S1131720991FDC01AA0FBB1FAA0FBB1F8A0F9B1FA7
S113173046E44E9F90014F9F300D1124DC01A20F0F
S1131740B31FAB5DBC4F8C91811124C08C2D90E0F4
S1131750880F991FDC01AA0FBB1FAA0FBB1F8A0F9A
S11317609B1FDC01A20FB31FAB5DBC4F8C2D90E01F
S1131770880F991FEC01CC0FDD1FCC0FDD1F8C0FE0
S11317809D1F280F391FE901CB5DDC4F89818F5FD5
S113179011968C938C2D90E09C01215031092730B7
S11317A03105A0F5D901AA0FBB1FA901440F551F8C
S11317B0440F551F440F551FA40FB51FC6E4C69F01
S11317C0A001C79F500D1124A40FB51FAB5DBC4FE2
S11317D04C9141111BC0D901AA0FBB1FA901440F91
S11317E0551F440F551F440F551FA40FB51FC69F07
S11317F0A001C79F500D1124A40FB51FAB5DBC4FB2
S113180011964C9111974F5F11964C9343E04B15F1
S1131810B8F1AB014F5F5F4FEC01CC0FDD1FDC0172
S1131820AA0FBB1FAA0FBB1FAA0FBB1FAC0FBD1F64
S113183016E4149FE001159FD00D1124AC0FBD1FB9
S1131840AB5DBC4FAC91A1111BC0EC01CC0FDD1FF3
S1131850DC01AA0FBB1FAA0FBB1FAA0FBB1FAC0F33
S1131860BD1F149FE001159FD00D1124AC0FBD1FA7
S1131870AB5DBC4F11964C9111974F5F11964C93F1
S1131880C5E0CC1588F1AC014F5F5F4FEA01CC0F86
S1131890DD1FDA01AA0FBB1FAA0FBB1FAA0FBB1FB4
S11318A0AC0FBD1F16E4169FE001179FD00D112445
S11318B0AC0FBD1FAB5DBC4FAC91A11115C0DA01DB
S11318C0AA0FBB1F440F551F440F551F440F551F2C
S11318D0A40FB51FAC0FBD1FAB5DBC4F11964C914F
S11318E011974F5F11964C934B01DFEF8D1A9D0AB0
S11318F045E084169104D4F5DC01AA0FBB1FAC01AA
S1131900440F551F440F551F440F551FA40FB51FF7
S113191016E4189DA001199D500D1124A40FB51FA4
S1131920AB5DBC4F11964C91442319F1DC01AA0F15
S1131930BB1FAC01440F551F440F551F440F551FC7
S1131940A40FB51F189DA001199D500D1124A40FBB
S1131950B51FAB5DBC4F4C9141110EC0DB2CD39431
S113196041E04093E600FF24F39408C0DB2CF12C03
S113197005C0DB2CF12C02C0DB2CF12C3323E4F169
S1131980D901AA0FBB1FA901440F551F440F551FAE
S1131990440F551FA40FB51F16E4169FA001179FEF
S11319A0500D1124A40FB51FAB5DBC4F11964C9183
S11319B0442321F1D901AA0FBB1FA901440F551FCC
S11319C0440F551F440F551FA40FB51F169FA001A8
S11319D0179F500D1124A40FB51FAB5DBC4F4C9144
S11319E041110EC0AC2CAA9441E04093E600DB2CDC
S11319F06894FF24F1F805C0AC2C03C0AC2C01C0E2
S1131A00AC2CFF23E4F1DC01AA0FBB1FAC01440F93
S1131A10551F440F551F440F551FA40FB51F16E43F
S1131A201E9FA0011F9F500D1124A40FB51FAB5D75
S1131A30BC4F11964C91442311F1DC01AA0FBB1F3A
S1131A40AC01440F551F440F551F440F551FA40FDD
S1131A50B51F1E9FA0011F9F500D1124A40FB51F79
S1131A60AB5DBC4F4C9141110AC0DB2CDA9441E0D0
S1131A704093E600AC2C0F2EF3E0FF2EF02DDC019A
S1131A801196A730B10534F58D01000F111FAD017A
S1131A90440F551F440F551F440F551F040F151FA6
S1131AA00F2EF6E4EF2EF02DE69EA001E79E500DDA
S1131AB01124400F511F4B5D5C4FEA0149814423BF
S1131AC049F04881411106C0AC2CA3941092E60061
S1131AD0DB2C37C1F110A9C04091E6004F5F409361
S1131AE0E600A730B10504F58D01000F111FAD010B
S1131AF0440F551F440F551F440F551F040F151F46
S1131B000F2EF6E4FF2EF02DF69EA001F79E500D49
S1131B101124400F511F4B5D5C4FEA014881413055
S1131B2019F4AC2CA394DB2CFF2304F18C01000FDB
S1131B30111FAC01440F551F440F551F440F551F6F
S1131B40040F151F0F2EF6E4FF2EF02DFE9EA001AC
S1131B50FF9E500D1124400F511F4B5D5C4FEA0155
S1131B604881413019F4DB2CDA94AC2C332304F192
S1131B708901000F111FA901440F551F440F551F60
S1131B80440F551F040F151F0F2EF6E4FF2EF02DE2
S1131B90F69EA001F79E500D1124400F511F4B5D7E
S1131BA05C4FEA014881413019F4AC2CAA94DB2C37
S1131BB0D5E08D16910404F58C01000F111FAC01C2
S1131BC0440F551F440F551F440F551F040F151F75
S1131BD00F2EF6E4FF2EF02DF89CA001F99C500D79
S1131BE01124400F511F4B5D5C4FEA014881413085
S1131BF019F4DB2CD394AC2C7C01EE0CFF1C8C016F
S1131C00000F111F000F111F000F111FE00EF11E16
S1131C1046E4469F8001479F100D11240E0D1F1DA1
S1131C200B5D1C4F42E0E80148834091E6004150BF
S1131C304093E600453008F484C04091EE00411121
S1131C4080C045E04093E600D5E08D16910404F58C
S1131C508C01000F111FAC01440F551F440F551F79
S1131C60440F551F040F151F0F2EF6E4FF2EF02D01
S1131C70F89CA001F99C500D1124400F511FEA015A
S1131C80CB5DDC4F4881413019F4DB2CD394AC2C70
S1131C903323DCF0E901CC0FDD1F220F331F220FA9
S1131CA0331F220F331FC20FD31F26E4269FA00128
S1131CB0279F500D1124C40FD51FCB5DDC4F288105
S1131CC0213019F4AC2CAA94DB2CFF23E4F09C0102
S1131CD0220F331F880F991F880F991F880F991F90
S1131CE0820F931F46E44E9F90014F9F300D1124A5
S1131CF0FC01E20FF31FEB5DFC4F8081813019F48E
S1131D00DB2CDA94AC2CA730B105DCF4CD01880FC0
S1131D10991FAA0FBB1FAA0FBB1FAA0FBB1FA80F97
S1131D20B91F26E4269FC001279F900D1124A80FF8
S1131D30B91FAB5DBC4F8C91813019F4AC2CA394CA
S1131D40DB2C0E94E00061E082E00E94030188E253
S1131D500E9470008091F400805D0E9470008CE20B
S1131D600E9470008091F300805D0E94700089E2FF
S1131D700E9470008EED90E00E94EA0084EE90E0F4
S1131D800E94EA008D2D805D0E9470008CE20E940A
S1131D9070008A2D805D0E94700089E20E947000AC
S1131DA067E081E00E940301809161000E941101BB
S1131DB08091EE00811108C02A2D4D2D6091F30011
S1131DC08091F4000E949806DF91CF911F910F91AA
S1131DD0FF90EF90DF90CF90BF90AF909F908F9047
S1131DE008950F931F93CF93DF931092EB0000E0BD
S1131DF02091F8004091F7006091F3008091F40085
S1131E000E943007D82F8091E700823090F110E0D3
S1131E10C1E02C2F30E0220F331FD901AA0FBB1FC2
S1131E20AA0FBB1F2A0F3B1FD901AB50BF4F2C2F4A
S1131E3030E0220F331FF901EE0FFF1FEE0FFF1FDB
S1131E402E0F3F1FF901EB50FF4F00E013962C912A
S1131E5042816091F3008091F4000E9430078D1755
S1131E6010F4D82F1C2FCF5F8091E700C81788F299
S1131E7001C010E0882399F0E8EFF0E090E0EF0172
S1131E80DF0111972C91223031F42081223009F0A6
S1131E90B5C0B3C0192F9F5F3A969813F0CF0E9434
S1131EA0E00082E00E9478012FEF31EE84E02150BF
S1131EB030408040E1F700C0000012BA812F90E06A
S1131EC0880F991FDC01AA0FBB1FAA0FBB1F8A0F23
S1131ED09B1FDC01AB50BF4F812F90E0880F991FEF
S1131EE0FC01EE0FFF1FEE0FFF1F8E0F9F1FFC0163
S1131EF0EB50FF4F01E013962C9142816091F30067
S1131F008091F4000E943007812F90E0880F991F80
S1131F10FC01EE0FFF1FEE0FFF1F8E0F9F1FFC0132
S1131F20EB50FF4F812F90E0880F991FDC01AA0F1F
S1131F30BB1FAA0FBB1F8A0F9B1FDC01AB50BF4FF7
S1131F4012962C91838190E0880F991FFC01EE0F6B
S1131F50FF1FEE0FFF1F8E0F9F1FFC0136E4239F10
S1131F60E00DF11D1124EB5DFC4FC1E0C083109323
S1131F70F00062E0812F0E94420382E00E94A601E9
S1131F808FEF93E026EA815090402040E1F700C0B3
S1131F90000082E00E949C013FEF85EA9EE0315000
S1131FA080409040E1F700C0000012BAC093EB00FB
S1131FB082E00E948406809162008E3431F4809124
S1131FC0F30081508093F30022C0853431F4809172
S1131FD0F4008F5F8093F4001AC0873531F4809148
S1131FE0F40081508093F40012C0833581F4809111
S1131FF0F3008F5F8093F3000AC0192F28812330E8
S113200009F4192F2881243009F045CF43CFDF91FB
S1132010CF911F910F9108950F932091F000209379
S1132020F200822F90E0880F991FDC01AA0FBB1FDA
S1132030AA0FBB1F8A0F9B1FDC01AF58BD4F822F15
S113204090E0880F991FFC01EE0FFF1FEE0FFF1F9A
S11320508E0F9F1FFC01EF58FD4F01E013962C914A
S113206042816091F3008091F4000E9430078091D6
S1132070F200282F30E0220F331FF901EE0FFF1F6B
S1132080EE0FFF1F2E0F3F1FF901EF58FD4F282FB2
S113209030E0220F331FD901AA0FBB1FAA0FBB1FA9
S11320A02A0F3B1FD901AF58BD4F12969C91238133
S11320B030E0220F331FF901EE0FFF1FEE0FFF1F59
S11320C02E0F3F1FF90146E4949FE00DF11D1124EA
S11320D0ED5EFE4F93E0908363E00E94420312BAE8
S11320E083E00E9478018FEF98EF25E181509040C2
S11320F02040E1F700C0000083E00E949C014FEF04
S113210087E893E1415080409040E1F700C000002F
S113211083E00E94A6012FEF4BE782E92150404063
S11321208040E1F700C0000012BA1092EB000E9458
S111213045040E94E0000F910895F894FFCF3B
S113213E03014E496E697469616C697A696E672E22
S113214E2E2E00506C6561736520576169742E2EB6
S113215E2E00424F542040205374617274204E6FEF
S113216E646500424C4F434B205345415243482033
S113217E4D4F44002020534F4C5645204D4F44455F
S113218E005441534B20434F4D504C45544544212C
S113219E21004E4F572C20524F424F54204953008A
S11321AE61742000424C4F434B0020402000202DF0
S10921BE2D3E2000280064
S9030000FC
